:020000040000FA
:100000000002040000000000C8020000DA580000EE
:10001000C8020000E0580000C8020000C80200004A
:10002000C8020000C8020000C8020000C8020000A8
:10003000C8020000C8020000C8020000C802000098
:10004000C8020000E6580000C8020000C802000014
:10005000C8020000C8020000C8020000C802000078
:10006000C8020000C8020000C8020000C802000068
:10007000C8020000EE580000C8020000C8020000DC
:10008000C8020000C8020000C8020000C802000048
:10009000C8020000C8020000C8020000C802000038
:1000A000C8020000C8020000C8020000C802000028
:1000B000C8020000C8020000C8020000C802000018
:1000C000C8020000C8020000C8020000C802000008
:1000D000C8020000C8020000C8020000C8020000F8
:1000E000C8020000C8020000C8020000C8020000E8
:1000F000C8020000C8020000C8020000C8020000D8
:10010000C8020000C8020000C8020000C8020000C7
:10011000C8020000C8020000C8020000C8020000B7
:10012000C8020000C8020000C8020000C8020000A7
:10013000C8020000C8020000C8020000C802000097
:10014000C8020000C8020000C8020000C802000087
:10015000C8020000C8020000C8020000C802000077
:10016000C8020000C8020000C8020000C802000067
:10017000C8020000C8020000C8020000C802000057
:10018000C8020000C8020000C8020000C802000047
:10019000C8020000C8020000C8020000C802000037
:1001A000C8020000C8020000C8020000C802000027
:1001B000C8020000C8020000C8020000C802000017
:1001C000C8020000C8020000C8020000C802000007
:1001D000C8020000C8020000C8020000C8020000F7
:1001E000C8020000C8020000C8020000C8020000E7
:1001F000C8020000C8020000C8020000C8020000D7
:10020000C8020000C8020000C8020000C8020000C6
:10021000C8020000C8020000C8020000C8020000B6
:10022000C8020000C8020000C8020000C8020000A6
:10023000C8020000C8020000C8020000C802000096
:10024000C8020000C8020000C8020000C802000086
:10025000C8020000C8020000C8020000C802000076
:10026000C8020000C8020000FFFFFF00FFFFFF0000
:10027000FFFFFF00FFFFFF00FFFFFF00FFFFFF008A
:10028000FFFFFF00FFFFFF00FFFFFF00FFFFFF007A
:10029000FFFFFF00FFFFFF00FFFFFF00FFFFFF006A
:1002A000FFFFFF00FFFFFF00FFFFFF00FFFFFF005A
:1002B000FFFFFF00FFFFFF00FFFFFF00FFFFFF004A
:1002C000FFFFFF00FFFFFF00FFFFFF00FFFFFF003A
:1002D000FFFFFF00FFFFFF00FFFFFF00FFFFFF002A
:1002E000FFFFFF00FFFFFF00FFFFFF00FFFFFF001A
:1002F000FFFFFF00FFFFFF00FFFFFF00FFFFFF000A
:10030000FFFFFF00FFFFFF00FFFFFF00FFFFFF00F9
:10031000FFFFFF00FFFFFF00FFFFFF00FFFFFF00E9
:10032000FFFFFF00FFFFFF00FFFFFF00FFFFFF00D9
:10033000FFFFFF00FFFFFF00FFFFFF00FFFFFF00C9
:10034000FFFFFF00FFFFFF00FFFFFF00FFFFFF00B9
:10035000FFFFFF00FFFFFF00FFFFFF00FFFFFF00A9
:10036000FFFFFF00FFFFFF00FFFFFF00FFFFFF0099
:10037000FFFFFF00FFFFFF00FFFFFF00FFFFFF0089
:10038000FFFFFF00FFFFFF00FFFFFF00FFFFFF0079
:10039000FFFFFF00FFFFFF00FFFFFF00FFFFFF0069
:1003A000FFFFFF00FFFFFF00FFFFFF00FFFFFF0059
:1003B000FFFFFF00FFFFFF00FFFFFF00FFFFFF0049
:1003C000FFFFFF00FFFFFF00FFFFFF00FFFFFF0039
:1003D000FFFFFF00FFFFFF00FFFFFF00FFFFFF0029
:1003E000FFFFFF00FFFFFF00FFFFFF00FFFFFF0019
:1003F000FFFFFF00FFFFFF00FFFFFF00FFFFFF0009
:100400002F4821000EBF2D000E01880000000000C3
:100410000C00070080392500010020000F000700B4
:10042000000020000000E000020032000000020096
:1004300000000000B8130200000000000040DA00D5
:100440000000FE00A06D20000000E000020032006D
:10045000002020009001880000000600A102880012
:10046000800078000000EB001A003700E2804000B6
:1004700054A0B4009101BA00E280400054A0B4003E
:100480009102BA00E280400054A0B4000002EB00E8
:10049000472BDE00F507B200A6018800602CE100C2
:1004A00008003A000049EB000201E80002003900B0
:1004B0003420EC0002F0A0008301E900F9FF3E00C7
:1004C000040037006128E100010032000082EB00E7
:1004D000040007001101BA000200E000E3FF3A0047
:1004E0000000060004D0A300E20F49001C00390000
:1004F000810278003549BA000201E80002003900A3
:100500003420EC0002F0A0008301E9000F0032006B
:100510002549BA000201E800020039003420EC004D
:1005200002F0A0008301E900080032000400E000AE
:100530000600320015C9BA000201E80002003900C5
:100540003420EC0002F0A0008301E9008180E80083
:1005500054A0B4000300E000E2FF3A0000000600EF
:100560009102BA00055978008301E900F7FF3200D3
:10057000C82ADE00055978008301E900F3FF320044
:100580000400E000F1FF320011D9BA00EEFF37009D
:100590000040DA000000FE008001780014C9BF00AE
:1005A000660060000081EB00E60F500003003A0097
:1005B000D3488800C148880012002000020078005B
:1005C0000000060000E8A900674160004411DD005A
:1005D00033842000F1C8B30093C0600082C970006A
:1005E000680060004300DE004700DD00018220005B
:1005F000914078000174A10080C070000100780073
:1006000020E8B700000006000621EF00610888001E
:10061000800888001061A900000006000A21EF0090
:100620007108880090088800000006006022B80069
:10063000060220000000D0008180D2000482D20097
:100640008582D2000000A0000202520083825A007C
:10065000030031000202420083824A000000A10030
:100660000603E900F3FF3A0000000600EFFF070071
:100670000400BE000000060000027800810178003E
:1006800001007800110009000280D8008400E80011
:100690000000E0000200320001027800F9FF37009C
:1006A0008048EB00110009008281D8008000FD0025
:1006B00081017800E94F500001003400674040009C
:1006C00005C3B300055240000100E000F5FF3A0009
:1006D0000400780000000600881F780000047800FD
:1006E0000100E000020035008001780004003700BE
:1006F00080017800D0C2B300805978008100EA0000
:1007000003007800DCFF0700080078004F04780041
:10071000000006000C00FA00889FBE00000478006C
:10072000CFB09700F0FF2700D0BF9F008004EB0000
:1007300099BF9F0088BF9F00A8BF9F00200C20008A
:10074000B0BF9F00788157007080570008000700F5
:100750000FB89700094878000FB8970008045000B8
:10076000080078004F04BE000080FA000000060078
:10077000FE874700889FBE008A9FBE008C9FBE00F8
:100780008E1F7800F0B79F000107780082BF9F009E
:100790000000EB00A0B79F009E0237008006EB0030
:1007A00050C2B30080CF5000090032000100FB00AE
:1007B000FFB09700A2020700E10F4000950232004F
:1007C000AFB097008100E800A1B79F009102370009
:1007D0009E407800D0C2B30080CF50000C003200A1
:1007E00007003C006D40500080CF50000A003200EE
:1007F0006B40400080CF50000E003A0008003700E8
:1008000000C3B30080CF50000A003A000600370052
:100810000D30A000050037000D00A00003003700D8
:100820000D10A000010037000D20A0000E07E80009
:10083000E7FF37000D18A300010032000D00A100F2
:100840000D38A300010032000D20A1000100FB00C3
:1008500002FD2F0002004000E90F50000D003E0095
:100860008001EB00C3B79F004FB29700EA20B800A9
:100870009E00FB000100400002004000C0B79F0046
:100880005E00FB0002004000E90F50000B003E003C
:10089000F5FF37008002EB00C5B79F00A0C2B30090
:1008A00080CF500005003A000FBE97004C00780042
:1008B0008CBF9F00C0B79F000E07E8008000EB00D0
:1008C000B1B79F00E0C2B3009E4F100018003A007D
:1008D0000DE0A0008E00E80064405000914F100031
:1008E00002003200010778000C0037008FB9970032
:1008F0004302780083BF9F00B4B79F000E87E800D3
:100900000B003700BFB29700EA28B8000100400092
:1009100002004000B0B79F000E07E8009E00FB00F9
:1009200002FD2F0002804000E90F5000F5FF360065
:10093000BE407800E1D79F00C0C6B30080CF500012
:10094000220032000F003C006940500080CF500070
:100950007700320004003C000104E0003102320064
:100960006B4050000F00370040C6B30080CF5000EE
:10097000930032006540400080CF50008B003A0069
:100980008F00370030C7B30080CF50001A0032000C
:1009900007003C006440500080CF5000110032003E
:1009A0000040E80080CF500080003A000F00370080
:1009B00050C7B30080CF5000800032006340400039
:1009C00080CF500079003A0009003700000028006D
:1009D0000D48A30001003A00000120008086760047
:1009E000D3FF37000D60A000750037000D50A00048
:1009F0000D70A000720037000FBE97004C00780009
:100A00008CBF9F00000478000000E00001003A0065
:100A1000A84221008004EB00010037008104E800B7
:100A200089007800088044001004E000FBFF3A00D1
:100A30003FB097000000E00003003200890F500033
:100A400001003100800478008000EB00E1AF9F00DE
:100A50004FB19700890F5100020036000900510084
:100A6000E0AF9F004368DE00E10660001B003A0033
:100A70000D06780009003700FFB097000002200043
:100A8000EF010700E10F400003003200AFB1970013
:100A90008301E800A3B79F000C06E8006FAA970047
:100AA000840F5600F4FF3A008082EB00E5AF9F0010
:100AB0000A003700880078003100FB00010478004C
:100AC000FFB09700DE010700E10F40000300320095
:100AD0002FB697000C06E800ACB79F000900E900AC
:100AE00080047800E10F4000F2FF3A000006EB00BE
:100AF0000D00E0000A003A00C6013700FFB0970081
:100B000000022000CE010700E10F40000300320088
:100B10002FB097000000E800A0B79F000C06E80087
:100B2000EFA89700810F5600F4FF3A00B901370093
:100B30000FB997004200780082BF9F00CF80DE008F
:100B400001017800820178000205BE000004BE00A9
:100B50000203BE000002BE004822DE00482EDD0077
:100B600004027600E4D79F000D48A3000A0032007B
:100B70000404E00008003200E14F420006003200A9
:100B800071FD2F000180470004487800184098004C
:100B90002900200002003700F0D79F001900200034
:100BA00072FD2F0002844700A1FF370063FD2F0074
:100BB00003844700190020009DFF37000D0CB3008F
:100BC0000D007800000CB20028003A000D00E00093
:100BD00005003D000FBA97004405BE004404BE0066
:100BE00084BF9F00140037000D48A3000B003200A3
:100BF0008FBA97004500BE0085BF9F004F89DE0079
:100C0000CF91DE000002BE0002037800820378006C
:100C10000605BE000404BE00070037000FBE9700A3
:100C20004C0078008CBF9F0000047800CFC4DE0029
:100C3000090578008A057800E00F5400E08F5C0019
:100C4000E00F5D00E08F5D001F003D003D00B30040
:100C50006000B8006011B800080450008984580092
:100C60000A0559008B855900170037000D00E00078
:100C700005003D000FB897004005BE004004BE00CF
:100C800080BF9F00100037000D48A300070032000E
:100C90000FBA97004400BE0084BF9F006011B800E7
:100CA0000205BE000004BE00070037008FBA97009F
:100CB0004500780085BF9F000004780009002000EF
:100CC0000A0020000B0020003FB697000C00E00057
:100CD00007003A00E00F5400E08F5C00E00F5D0079
:100CE000E08F5D0002003A0010002000B0B79F00C6
:100CF0008D007800010CB200E1B79F0000042000D5
:100D0000808F50003000320003003C000100E00002
:100D10000800320040003700000820006FB1970043
:100D2000800F510014003200000C2000800F510091
:100D300039003A0014C0B300A53821000B00370079
:100D40000400FB004300DD00050040005001BE0030
:100D50004000BE000040E10001C8E10002D0E10017
:100D600003D8E1002B0039000442E800F44F5200A0
:100D7000F3FF3A00270037000001200001002000A7
:100D80006011B80014C0B3000040E10001C8E100E8
:100D900002D0E10003D8E1001E0039004500200028
:100DA0000000D0008180D2000281D2008381D20075
:100DB0008502E900FAFF3A000442E800F04F5200D1
:100DC000F1FF3A00130037008000200001002000EE
:100DD0006011B80014C0B3000040E10001C8E10098
:100DE00002D0E10003D8E1000A0039003C002000F5
:100DF0000000D0008180D2000281D2008381D20025
:100E00000C06E900FAFF3A000442E800F54F5200F0
:100E1000F1FF3A00E4D79F00EFD097000100FB00FC
:100E20003FB19700820F500002003D00E2D79F00C3
:100E300004003700BFB19700808F510001003D00D2
:100E4000B0B79F004FB297000400E00004003200EA
:100E500063806600020032000402E900C4B79F000C
:100E60000DE8A3000B003200CFB297003FB6970009
:100E70008C8F520003003C000000EB00C0B79F00C5
:100E800004003700CFB097003FB197008280500038
:100E9000C1B79F00EFD197000300FB000002EB00F9
:100EA000D4AF9F00CFB29700808F52000200340071
:100EB00000805200D0AF9F000D28A3003600320002
:100EC000E18066000D18A3000C003200D002200063
:100ED0000100E00001003A000080E900FFB0970047
:100EE000D7000700E10F40000E0032002FB6970038
:100EF0000C06E800ACB79F000A0037000100E000D4
:100F000008003200FFB0970000022000CC0007006C
:100F1000E10F4000030032002FB097000000E8000E
:100F2000A0B79F00DFA897000100E0000F0032008B
:100F30000006EB00FFB0970000032000C000070090
:100F4000E10F4000030032002FB197000201E800DA
:100F5000A2B79F000C06E800DFA99700830F560098
:100F6000F4FF3A000002EB00D4AF9F00BFB297003D
:100F70004328DD00213821000100400090B79F0088
:100F80004228DD006400500080B79F00E32EB800C7
:100F9000FCAF9F00840037005FA897000000E000CE
:100FA00011003200688066000F003A0000067800E9
:100FB000FFB0970000022000A1000700E10F4000F1
:100FC00003003200AFB097008100E800A1B79F0096
:100FD0000C06E8005FA99700820F5600F4FF3A0064
:100FE0008001EB00D3AF9F00E18066000D18A300E5
:100FF0000C003200D00220000100E00001003A00A5
:101000000080E900FFB097008D000700E10F40006D
:10101000D6FF32002FB297000402E800A4B79F0069
:10102000D2FF37000100E000D0FF3200FFB0970090
:101030000002200082000700E10F4000CBFF3200D9
:10104000AFB297008502E800A5B79F00C7FF370041
:1010500000042000EFB09700808F50003200320073
:1010600003003C000100E000080032003F003700B0
:10107000000820006FB19700800F5100110032006E
:10108000000C2000800F510038003A009FB19700FB
:101090003302BE002303BE000800BE000A01BE00EA
:1010A000D1010700A4002000050020006033B80033
:1010B000D401070004C3B30004424000E4D79F00FA
:1010C0002A00370015432100D5B79F000D58A30013
:1010D00002003A0020442100D0B79F0014002000F5
:1010E000050020006033B8008FB097008100E90050
:1010F000050033000402D0008582D2000683D200AE
:101100008783D200F9FF37000800BE000A01BE0045
:10111000B50107006F0060005FB19700000041005B
:101120001040780010003700140020000500200057
:101130006033B8008C0178008301E90005003300BA
:101140000402D0008582D2000683D2008783D200B9
:10115000F9FF37000800BE000A01BE00A201070027
:10116000674060000043B000E0D79F006FD2970057
:101170000400FB00FFB0970031000700E10F4000C2
:1011800003003200AFB297008502E800A5B79F00C8
:101190001FB097006800500090B79F008FB0970075
:1011A000E480500081B79F0063065600D0FF2F00F7
:1011B0003FB197008010B8007FAA9700000042005E
:1011C00063005000800F5600A1FF3A000D38A300C5
:1011D00010003200DFAA97000500E0000D00340087
:1011E0000006EB00FFB0970000022000140007008B
:1011F000E10F4000030032002FB097000000E8002C
:10120000A0B79F000C06E800DFA89700810F5600EA
:10121000F4FF3A00BE407800E1D79F000104E000EF
:101220005EFD3A002FB097004F0778004F06BE00D2
:101230004F05BE004F04BE00EF01B10000000600E4
:10124000889FBE000001780001047800B100900082
:101250000118A300400032000198A30003003A00E7
:10126000180090000000E0003B003A000190A00050
:101270003104980082047800F90FB2001800900041
:101280000000E00002003A0028009000000C780006
:10129000EA8F540006003A00380090000078A3005E
:1012A00003003A0088007800D0002000E4FF070027
:1012B000180290006121B90058009000E8009000E9
:1012C000800F5100818F59000B0032000400E800AC
:1012D000100498001800780009587800000C780075
:1012E00011C0B300E047210001487800EA8F5400A4
:1012F00006003200190037008800780009407800A5
:1013000019000700800478001400370038009000AE
:101310000088A3001100320018019000A80090007E
:10132000480090005300070098009000810F500083
:1013300004003200380090000003B300300498002D
:101340008084EB000000EB0010049800280090005F
:10135000000C7800010037008084EB000900780061
:101360004F04BE00000006000200FA00889FBE0085
:10137000A0FF9F0001047800B10090008104780074
:101380000904B200020032000000FB003600370002
:101390000118A30005003A000103B30031049800CE
:1013A000190498000080EB002F00370058009000CF
:1013B0000000E00006003A00480090001200200003
:1013C000E68057002B00070019049800240037001E
:1013D000280090000000E00008003A00A04721002B
:1013E00020049800000C7800200020005004980091
:1013F000100498000130A0003104980018019000FA
:10140000A8009000480090001A00070028009000F3
:10141000000C78000080EB001004980018007800A1
:10142000AFF8970001587800000C78002FF897006B
:10143000EA4F50000A003A00380090000088A300EC
:101440000700320018019000A800900048009000AA
:101450000800070019049800A8009000010C78000B
:10146000AFF897000100FB004F04BE000080FA00B7
:10147000000006000A00FA0080017800E20F500028
:1014800027003E0000A48000E10F50000800320059
:10149000802320000000E00005003200042320002B
:1014A0002523200046232000800178000400370017
:1014B0000422200025222000462220008322200032
:1014C000144090000004E000040035008009EB00A7
:1014D000144090000074A000104298001540900045
:1014E0000028A30003003A00154090000024A0004B
:1014F000904298008001EB000600370015409000F4
:101500000008A300FDFF32003100FB00000B780053
:101510008301E800828F5100F8FF3A00080037008D
:1015200030002000B0BF9F00C3BF9F00D1BF9F000D
:10153000E2BF9F006A80570000C0DA006FB99700D1
:10154000020078000080FA0000000600881F780082
:10155000000478005001BE004000BE0004004000BE
:10156000858048000601490087814900009CBE0033
:101570000294BE000400E1000588E1000690E1004D
:101580000798E10002003100680044001008E800FC
:101590004F04780000000600F4874700889FBE00D3
:1015A0008A9FBE008C9FBE008E1F78000205BE0081
:1015B0000004BE00D4B79F00E5B79F00F6B79F00B8
:1015C00087BF9F000000EB00C0B79F00B0B79F002F
:1015D000A0B79F0090B79F0080B79F000D04200028
:1015E000BFB097004FB09700000140000000E0003E
:1015F0000F003D004F08DE0000007100C0B79F00E3
:101600004D00070001003D001200200050000700BF
:1016100001003D0012002000550007006100070096
:10162000660007000F004000C8FF070022003700D7
:101630004F08DE0000067100CCB79F003E00070097
:1016400001003D00120020004100070001003D00A4
:101650001200200046000700520007000FB297005A
:101660009FB297002FB39700BFB3970059000700B0
:101670000000520081805A0002015B0083815B0000
:1016800080B79F0091B79F00A2B79F00B3B79F009C
:101690000007EB004F0007000020E10001A8E10077
:1016A00002B0E10003B8E100010031001E0020009B
:1016B0000E005600C0B79F004FB297000400E00034
:1016C0000700350010002000010020006011B80064
:1016D00008047000898470000A0571008B85710010
:1016E0008D06E900BEFF3A000400E00003003D0063
:1016F000320007000F00400094FF07004FA897003A
:101700000000E00004003A000FB497009FB4970077
:101710002FB59700BFB597000800BE000A01BE00B4
:101720004F0778004F06BE004F05BE004F04BE00B5
:101730004F01B100000006000180400090B79F00FB
:101740000001EB008FB097000100E00000000600F0
:101750000200700090B79F000180400080B79F009A
:101760000001EB00FFA897000100E0000000060068
:101770000200700080B79F00018040006FAA9700B0
:10178000CF20DE0001007000F0AF9F000402420095
:101790000800BE000A01BE004F18DE000002720001
:1017A00000000600E4AF9F000804440089844C0058
:1017B0000A054D008B854D00000006003FB29700E2
:1017C000CFB297005FB39700EFB3970000FE2F00F2
:1017D000000006003FB09700CFB097005FB19700C0
:1017E000EFB1970000000600881F78001800200065
:1017F000881F780068FF07008F87E9004F04780092
:1018000000000600801FEB0063FF07008F87E900E0
:1018100000000600889FBE008A9FBE008C1F7800D3
:101820000205BE000004BE00E00F5000E08F58002B
:10183000E00F5900E08F59000C003D006000B80037
:101840006011B80008045000898458000A05590046
:101850008B8559001C0020001F00070008003D0078
:10186000180007000006EB00050037000006EB003B
:101870001900070002003D000F0007001C002000B7
:101880000800BE000A01BE00D7FF07000203BE0029
:101890000002BE000C00E00001003200060007005C
:1018A0000400BE000601BE004F0678004F05BE00D2
:1018B0004F04BE00000006006000B8006011B800D0
:1018C00000003700040250008582580006035900CA
:1018D0008783590000000600E00F5200E08F5A0095
:1018E000E00F5B00E08F5B0000000600889FBE00F9
:1018F0008A9FBE008C1F78000205BE000004BE0057
:10190000E00F5000E08F5800E00F5900E08F5900C1
:101910000A003D006000B8006011B80008045000E3
:10192000898458000A0559008B8559001C00200045
:101930001800070007003D00050037000006EB0017
:101940001400070003003D006000B8006011B800FB
:10195000150007000800BE000A01BE00A9FF07002D
:101960000203BE000002BE000C00E00003003200D3
:101970006000B8006011B8000B0007000400BE0052
:101980000601BE004F0678004F05BE004F04BE00A2
:1019900000000600E00F5200E08F5A00E00F5B00ED
:1019A000E08F5B00000006000402500085825800B2
:1019B000060359008783590000000600010000005B
:1019C0000026000001000000A693000002000000B5
:1019D0000026000001000000A693000003000000A4
:1019E0000026000002000000A69300000400000092
:1019F0000026000004000000A6930000050000007F
:101A00000026000001000000A69300000600000070
:101A10000026000002000000A6930000070000005E
:101A20000026000004000000A69300000010000043
:101A300000050000040000005893000001100000A1
:101A40000001000001000000D2120000021000009E
:101A50000001000004000000F2120000031000006A
:101A60000013000001000000AE2100000310000080
:101A700001110000040000007821000003100000A4
:101A80000211000004000000782100000310000093
:101A90000311000004000000782100000310000082
:101AA0000411000004000000782100000310000071
:101AB0000511000004000000782100000310000060
:101AC000061100000400000078210000031000004F
:101AD000071100000400000078210000031000003E
:101AE000081100000400000078210000051000002B
:101AF000001100000400000044560000081000001F
:101B000000050000170000005C93000009100000B1
:101B10000005000004000000769300000A10000099
:101B200000050000040000007B9300000B10000083
:101B30000001000001000000471200000C1000002E
:101B400000130000020000003E4A00000D100000DB
:101B500000130000010000009A4A0000101000006D
:101B600000130000010000008B9300001010000023
:101B700001130000040000000A2100001010000002
:101B800002130000040000000A21000010100000F1
:101B900003130000040000000A21000010100000E0
:101BA00004130000040000000A21000011100000CE
:101BB00000130000010000008B93000011100000D2
:101BC0000113000004000000DC20000011100000E0
:101BD0000213000004000000DC20000011100000CF
:101BE0000313000004000000DC20000011100000BE
:101BF0000413000004000000DC20000014100000AA
:101C000000110000040000005C53000016100000EA
:101C1000000300000100000088930000161000007F
:101C200001030000040000001C1300001710000056
:101C30000013000002000000E2490000181000003C
:101C40000005000001000000529300001810000081
:101C5000010500000400000054930000181000006B
:101C6000020500000400000080930000181000002E
:101C70000305000004000000849300001810000019
:101C8000040500000400000086120000001200009D
:101C90000005000001000000B693000000120000E3
:101CA00001110000040000001222000000120000D8
:101CB0000211000004000000422200000014000095
:101CC00000050000010000008993000000140000DE
:101CD00001110000040000007C440000001400001A
:101CE00002030000010000004C120000001600007A
:101CF00000050000010000008993000000160000AC
:101D00000105000004000000989300000016000088
:101D100002050000040000009C9300000018000071
:101D20000005000001000000899300000018000079
:101D300001110000040000003E45000000180000F2
:101D400002030000010000004C120000001A000015
:101D5000000500000100000089930000001A000047
:101D6000010500000400000090930000001A00002C
:101D70000205000004000000949300000020000011
:101D80000005000001000000A593000000200000F5
:101D900001030000020000005012000001200000BA
:101DA0000005000001000000A593000001200000D4
:101DB00001030000020000004E120000022000009B
:101DC0000005000001000000A593000002200000B3
:101DD0000103000002000000581200000320000070
:101DE0000005000001000000A59300000320000092
:101DF0000103000002000000521200000420000055
:101E00000005000001000000A59300000420000070
:101E10000103000002000000541200000520000031
:101E20000005000001000000A5930000052000004F
:101E30000103000002000000561200000022000012
:101E400000050000010000008A930000002200004D
:101E500001030000020000006612000000220000E2
:101E600002030000020000006C12000000220000CB
:101E700003030000020000007212000000320000A4
:101E800000050000010000008993000000320000FE
:101E90000113000001000000882000000032000053
:101EA0000213000001000000342000000232000094
:101EB00000050000010000008893000002320000CD
:101EC0000113000001000000DE1F000000400000C0
:101ED00000030000010000008893000000400000A3
:101EE00001030000040000008C12000004500000F8
:101EF000000500000100000089930000045000006C
:101F000001120000040000007222000004500000D2
:101F10000213000004000000C02200000060000066
:101F200000010000010000008A9300000060000032
:101F3000010100000100000004100000006000002A
:101F40000201000001000000051000000060000018
:101F50000201000001000000061000000062000005
:101F600000010000010000008993000000620000F1
:101F700001030000010000000C10000000620000DE
:101F800002030000010000000D10000000650000C9
:101F900000010000010000008C93000000650000BB
:101FA00001120000040000002A300000006500005B
:101FB00002130000140000005A3000000065000009
:101FC0000313000014000000CC3000000065000086
:101FD00004130000140000003E3100000065000002
:101FE0000513000014000000B0310000016500007E
:101FF00000010000010000008C930000016500005A
:1020000001120000040000002232000001650000FF
:1020100002130000140000005032000001650000AF
:102020000313000014000000BE3200000165000030
:1020300004130000140000002E33000001650000AE
:1020400005130000140000009A3300000265000030
:1020500000010000010000008C93000002650000F8
:1020600001120000040000000834000002650000B6
:102070000213000014000000383400000265000064
:102080000313000014000000A634000002650000E5
:102090000413000014000000143500000265000065
:1020A00005130000140000008235000000660000E7
:1020B00000010000010000008D9300000066000098
:1020C0000113000004000000F0350000006600006D
:1020D00002130000040000004C36000000660000FF
:1020E0000313000004000000A83600000066000092
:1020F0000413000004000000043700000066000024
:1021000005130000040000006037000000660000B6
:102110000613000004000000BC3700000066000049
:1021200007130000040000001838000000670000DA
:10213000000100000100000088930000006700001B
:10214000011100000200000074380000007000005F
:102150000000000001000000A693000000700000D5
:102160000000000001000000A693000000800000B5
:102170000000000001000000A693000000800000A5
:102180000000000001000000A69300000090000085
:102190000000000001000000A69300000090000075
:1021A0000000000001000000A693000007000000EE
:1021B0001000000005000000020000000300000005
:1021C00023000000020000000200000002000000E6
:1021D00026000000030000000300000003000000D0
:1021E00003000000030000004B2D0000747200008B
:1021F0006F6E000069630000202D00002056000073
:1022000069740000726F000043690000736500008C
:1022100074200000434100004E4F00007065000034
:102220006E2000004F650000747A000074610000A9
:102230006C20000061750000746F00006D6100008B
:10224000746900006F6E0000312E00003031000014
:1022500020320000342F0000303100002F31000008
:1022600038000000FF0300009F2500000D990000CA
:10227000494100001F01000009FD000011C10000DC
:10228000638500006171000043910000F38F00003E
:1022900091F3000013D50000C531000019F50000CE
:1022A00049E1000083C70000C7930000B925000082
:1022B000426F00006F740000696E0000672000002C
:1022C000312E00002E2E0000000D00000A450000F7
:1022D0006E74000065720000696E000067200000E7
:1022E00054650000737400002E2E00002E000000C4
:1022F0000D0A0000456E0000746500007269000060
:102300006E67000020640000692E00002E2E000081
:10231000000D00000A4500006E74000065720000A8
:10232000696E000067200000636100007A7A000097
:102330002E2E00002E0A00004E4F00002043000009
:10234000414E000021000000313100003131000019
:10235000313100003131000031310000003800001F
:1023600038380000383800003838000038380000AD
:1023700038000000413000003132000033340000EA
:1023800035360000373800003930000031320000A7
:1023900033340000353600003738000000420000BA
:1023A0003031000032330000343500003637000091
:1023B000383900003031000032330000343500007D
:1023C0003637000038000000433000003132000092
:1023D0003334000035360000373800003930000053
:1023E0003132000033340000353600003738000049
:1023F000004400003031000032330000343500006A
:102400003637000038390000303100003233000028
:102410003435000036370000380000002535000054
:10242000752C00002000000025300000386C0000F2
:1024300078000000543A000020250000752E0000AE
:102440002530000031750000000000004444000009
:10245000050100000000000000000000FFFF000078
:102460000000000000000000FFFF0000000000006E
:1024700000000000FFFF000000000000000000005E
:10248000FFFF00000000000000000000FFFF000050
:10249000000000000000000000000000000000003C
:1024A000000000000000000000000000000000002C
:1024B000000000000000000000000000000000001C
:1024C000000000000000000000000000000000000C
:1024D0000200000000000000342F0000312F000037
:1024E00031380000202D0000205300002F4E000046
:1024F0002030000030300000310A000000000000F1
:1025000000000000000000000000000000000000CB
:10251000000000000000000050490000434200009D
:10252000656C00006C2000006677000020760000DB
:10253000312E0000303100000000000000000000DB
:10254000000000000000000000000000000000008B
:1025500000000000000000002843000029200000C7
:10256000437900006265000072640000796E00002B
:102570006520000032300000303900002D320000AC
:1025800030310000383B0000204100004450000082
:102590004D200000537900006E7400006865000053
:1025A00073690000732000003139000039390000E0
:1025B0002D32000030300000382000002D200000B7
:1025C000472E000044610000720A00000043000032
:1025D0007962000065720000647900006E65000099
:1025E00000000000000000000000000000000000EB
:1025F00000000000000000000000000000000000DB
:1026000000000000000000000000000000200000AA
:102610005049000043420000656C00006C2000003F
:10262000763100002E30000031200000005F0000F5
:102630000000000000000000001F00001F1F00003D
:102640001F1F00001F1F00001F00000000000000EF
:1026500000000000001F00001F1F00001F000000FE
:1026600000FF0000FF1F00001F1F00001FFF0000F1
:10267000FFFF0000FF1F00001F1F00001F000000E1
:1026800000000000040A0000040000000000000038
:1026900000060000091C0000081C000009060000DC
:1026A00000000000040000005F11000000000000B6
:1026B000910100000F0000004B2D0000747200001B
:1026C0006F6E00006963000020560000697400000E
:1026D000726F000043690000736500007420000001
:1026E0004465000076690000636500005631000013
:1026F0002E30000000560000312E00003100000096
:1027000002000000000000000100000000000000C6
:10271000010200000304000005070000080000009B
:1027200008010000006000000802000000600000D6
:1027300008010000006200000802000000620000C2
:10274000080000000000000002020000000000007D
:102750000000000012230000290200002879000078
:10276000943800001223000029020000020000003B
:102770002000FA00889FBE008A9FBE0000FC2C004B
:10278000A10620009A220700F70C07000060FE0057
:1027900000FC2C00A106200095220700A2220700C1
:1027A0000060FE0010C0B3008105070023CEBF000B
:1027B0000058A30003003A0010C0B3004105070011
:1027C000F8FF370048D2BF00E705070062CEBF0020
:1027D0000018A30003003A0023CEBF000068A30046
:1027E0001500320000082000F8200700010020003A
:1027F000909B8800A19B880000102000F320070018
:1028000001002000C09B8800D19B880046D2BF00F9
:1028100045F3B7005092800022F3B7004800DE0075
:1028200023F3B7000040EB0024F3B70025F3B70013
:1028300026F3B700BA1D07000040EB009216070010
:1028400010C0B3009016070020C0B3008E1607001A
:102850000040EB00A616070062CEBF000018A300E0
:1028600005003A0023CEBF000044B20002003A0047
:1028700081152900F916070010C0B3009C16070047
:1028800020C0B3009A160700658EA800B2040700A6
:1028900062CEBF000018A30048023A0023CEBF005A
:1028A00001C4B3000144600044023A0000D8210092
:1028B000C14220004E2207000060FE0000D8210027
:1028C000C14220004A2207000060FE005116290084
:1028D00008407800E11607008117290010C0B300F6
:1028E000DE1607009118290020C0B300DB16070090
:1028F0001B0020000005EB002A023700A101210087
:102900008041EB000100410083587800810F5000A6
:10291000FDFF3A007B011500FB0F51000C003C004D
:10292000A001210080004100A3C0B3001140E800D5
:1029300080487800EA4F5000010036008348780054
:102940000201E8008100E800FC0F5100F7FF3A00A7
:10295000E118070000C4B3001519070040C1B30017
:102960001319070062CEBF006140600002003A0008
:102970000F190700060037001AD0BF000080FB00C7
:1029800031132900010040001040780008190700A9
:1029900062CEBF006140600002003A0004190700E7
:1029A000060037001BD0BF000080FB003113290058
:1029B0000100400010407800FD180700D118070002
:1029C000C518070020C4B300F918070040C1B300C0
:1029D000F718070062CEBF006140600002003A00B5
:1029E000F3180700060037001CD0BF000080FB0072
:1029F000311329000100400010407800EC18070056
:102A000062CEBF006140600002003A00E818070093
:102A1000060037001DD0BF000080FB0031132900E5
:102A20000100400010407800E1180700B5180700C9
:102A3000A918070040C4B300DD18070040C1B30067
:102A4000DB18070062CEBF006140600002003A0060
:102A5000D7180700060037001ED0BF000080FB001B
:102A6000311329000100400010407800D018070001
:102A700062CEBF006140600002003A00CC1807003F
:102A8000060037001FD0BF000080FB003113290073
:102A90000100400010407800C51807009918070091
:102AA0008D18070060C4B300C118070040C1B3000F
:102AB000BF18070062CEBF006144600005003A0005
:102AC00008407800BA18070008407800B8180700D6
:102AD0000B00370020D0BF000080FB002813290026
:102AE0000800400010409000B118070021D0BF003E
:102AF0000080FB000800400010409000AC18070068
:102B0000801807007418070080C4B300A8180700D5
:102B100040C1B300A618070062CEBF006144600048
:102B200005003A0008407800A11807000840780026
:102B30009F1807000B00370022D0BF000080FB0069
:102B40002813290008004000104090009818070042
:102B500023D0BF000080FB00080040001040900020
:102B600093180700671807005B180700A0C4B3009C
:102B70008F18070040C1B3008D18070062CEBF0058
:102B80006144600005003A0008407800881807009A
:102B900008407800861807000B00370024D0BF00DB
:102BA0000080FB002813290008004000104090001E
:102BB0007F18070025D0BF000080FB000800400000
:102BC000104090007A1807004E18070042180700BE
:102BD000C0C4B3007618070040C1B30074180700E2
:102BE00062CEBF006144600005003A0008407800F2
:102BF0006F180700084078006D1807000B003700B9
:102C000026D0BF000080FB002813290008004000E8
:102C1000104090006618070027D0BF000080FB001E
:102C200008004000104090006118070035180700A8
:102C300029180700E0C4B3005D18070040C1B300C5
:102C40005B18070062CEBF006144600005003A00D7
:102C5000084078005618070008407800541807000C
:102C60000B00370028D0BF000080FB00281329008C
:102C700008004000104090004D18070029D0BF0008
:102C80000080FB000800400010409000481807003A
:102C90001C1807003B19070000C4B30067190700A0
:102CA00040C1B3006519070062CEBF0061446000F7
:102CB00005003A00084078006019070008407800D5
:102CC0005E1907000B0037002AD0BF000080FB0010
:102CD00028132900080040001040900057190700F1
:102CE0002BD0BF000080FB00080040001040900087
:102CF000521907002E1907002219070020C4B3003B
:102D00004E19070040C1B3004C19070062CEBF0046
:102D10006144600005003A00084078004719070048
:102D200008407800451907000B0037002CD0BF0081
:102D30000080FB002813290008004000104090008C
:102D40003E1907002DD0BF000080FB0008004000A6
:102D500010409000391907001519070009190700DC
:102D600040C4B3003519070040C1B3003319070050
:102D700062CEBF006144600005003A000840780060
:102D80002E190700084078002C1907000B003700A7
:102D90002ED0BF000080FB0028132900080040004F
:102DA00010409000251907002FD0BF000080FB00C5
:102DB000080040001040900020190700FC18070090
:102DC000F018070060C4B3001C19070040C1B3002D
:102DD0001A19070062CEBF006144600005003A0086
:102DE00008407800151907000840780013190700FB
:102DF0000B00370030D0BF000080FB0028132900F3
:102E000008004000104090000C19070031D0BF00AE
:102E10000080FB00080040001040900007190700E8
:102E2000E3180700D718070080C4B3000319070090
:102E300040C1B3000119070062CEBF0061446000C9
:102E400005003A0008407800FC18070008407800A8
:102E5000FA1807000B00370032D0BF000080FB00DB
:102E6000281329000800400010409000F3180700C4
:102E700033D0BF000080FB000800400010409000ED
:102E8000EE180700CA180700BE180700A0C4B30058
:102E9000EA18070040C1B300E818070062CEBF007F
:102EA0006144600005003A0008407800E31807001C
:102EB00008407800E11807000B00370034D0BF004D
:102EC0000080FB00281329000800400010409000FB
:102ED000DA18070035D0BF000080FB000800400072
:102EE00010409000D5180700B1180700A51807007A
:102EF000C0C4B300D118070040C1B300CF18070009
:102F000062CEBF006144600005003A0008407800CE
:102F1000CA18070008407800C818070005003700E5
:102F20000BC0EA00C51807000B80EA004800DE006D
:102F3000C21807009E18070092180700E0C4B300EB
:102F4000BE18070040C1B300BC18070062CEBF0026
:102F50006144600005003A0008407800B718070097
:102F600008407800B5180700050037000BC0EA00DC
:102F7000B21807000B80EA004800DE00AF18070017
:102F80008B1807000060FE00007E26005103200021
:102F900097200700007E26005103200094200700A0
:102FA0000060FE00007E26005103200090200700F4
:102FB000007E2600510320008D20070050E42000F1
:102FC00010417800E14061000104A2001041780046
:102FD0000204A100014871008B85450001003A0000
:102FE0001B0020000A05E800FB0F5500010034001B
:102FF0000005EB000040EB00F20B07000004780036
:1030000062CEBF00614060003A003A00B814070089
:103010000004EB00411A29000040EB000F150700E7
:103020000804E800E70F5400FAFF3A0010C0B300AC
:10303000AF1407000004EB00F11A290010C0B30020
:10304000061507000804E800E70F5400FAFF3A00ED
:1030500020C0B300A61407008044EB008004FD00EC
:1030600094F2B70095F2B7008004FD0020C0B300D1
:1030700010140700A11B290020C0B300F71407009B
:103080000900780094F2B70010C0B30095F2B700C1
:1030900020C0B30007140700F11C290020C0B300B2
:1030A000EE1407000900780094F2B70028C0B300BE
:1030B0000800780095F2B70008407800FD1307007B
:1030C000411E290008407800E41407000900780038
:1030D00094F2B70030C0B30095F2B7000840780012
:1030E000F4130700911F290008407800DB14070043
:1030F0002C0037000040EB007D1407008B1F780088
:10310000E0202900801F780040FD2F000F004000C4
:1031100080F5070041FD2F008F8040000040EB004C
:10312000CE14070082010700809FBE0041212900C4
:10313000811F7800E0FC2F000F00400075F50700AC
:10314000E1FC2F008F8040000040EB00C31407001B
:1031500020C0B30066140700A2002000811F780081
:10316000110009000204D800000178000100780075
:10317000CF007800801F7800821F7800A2212900EC
:10318000821F780080FC2F000F00400061F50700CF
:1031900081FC2F008F80400020C0B300AF140700D7
:1031A000F087570062CEBF000018A30003003A006A
:1031B00023CEBF000068A3007B003200C0262100A0
:1031C000620121008127210010597800660040002B
:1031D000808F5000FCFF3A006101210040C0B30025
:1031E00075000700452EA8008004EB000060FE007B
:1031F0008904E80080A923004433AB0001003A00B1
:1032000000532700890F500009003D0041E02000D5
:1032100091407800E1C060000104A20004CEBF002C
:103220000004A1000140700004EEB7008004EB0030
:1032300009200700002007000004E000EBFF320037
:10324000C10A070050E4200010417800E14061000D
:103250000104A200104178000204A100014871009D
:10326000631C07008A52E200020032000040EB00BB
:103270008D060700119280008100E80011928800FD
:10328000803E2000808F5000D8FF36000004EB0005
:10329000189288005020800001FA2F000100600081
:1032A0000A00320010C1B300D0F2B70050208000F5
:1032B00088007800EE030700582088007020800006
:1032C0000100200090978800A19788002804E20060
:1032D0000600320000C1B300D0F2B7008000EB005E
:1032E00000112800E20307002824EF00802180005D
:1032F000010323000100600003003A0090218000D8
:10330000010060000600320000C1B300D0F2B70037
:103310004A93A8008000EB0000122800D4030700A5
:1033200040C7BF000048A3000600320010C0B30031
:10333000D0F2B7004A93A8008000EB0010102600DE
:10334000CB03070061122100914078000104E000E6
:103350000700320010C2B300D0F2B7004A93A800B1
:103360008180FB0020002500C10307002671EF00CB
:103370008653E2009DFF3200EF0107000004E000E9
:1033800002003A0086F3B70098FF370010C2B3007E
:10339000D0F2B7004A93A8008000EB00300025006F
:1033A000B303070091FF37007C0115004240A900DC
:1033B00052FD3C0057FD3700889FBE008A9FBE002B
:1033C0008C9FBE008E1F78008046780081047800B4
:1033D0000004E0001C0032006CC2B3008005EB006A
:1033E0006E012100671707000C4046009317070085
:1033F0000004E0001500320040C1B3008F17070041
:103400000B80FB000E00400019487800090478008A
:1034100038C0EA00891707000B40E8000080FB0075
:103420000E004000184878008984E80018C0EA00BF
:10343000821707005E1707000C46E8008B85E8003E
:103440008BCF5600E7FF3A0010C0B3000000FB002E
:103450004F0778004F06BE004F05BE004F04BE0068
:1034600000000600889FBE0081047800E34F5000F2
:1034700056003E000040400001C2B300014440003D
:103480001516070008404400491607000004E00034
:10349000A300320040C1B30045160700194178006F
:1034A000824078000174A1000104E00002003200B3
:1034B00010CDB30080C0400002C0EA000080FB00D5
:1034C0004700DE0000C0E9008180FB0022132900D4
:1034D00082804000114060003516070019419000BD
:1034E000824078000174A1000104E0000200320073
:1034F00010CDB30080C0400002C0EA000080FB0095
:103500004700DE0000C0E9008180FB002213290093
:10351000828040001140600025160700F915070061
:10352000ED1507000840E8000040400020160700A5
:103530000004E0007A00320040C1B3001C1607000E
:1035400029419000824078000174A1000104E0004C
:103550000200320010CDB30080C0400002C0EA007B
:103560000080FB004700DE0000C0E9008180FB0016
:103570002213290082804000114060000C160700D1
:1035800039419000824078000174A1000104E000FC
:103590000200320010CDB30080C0400002C0EA003B
:1035A0000080FB004700DE0000C0E9008180FB00D6
:1035B000221329008280400011406000FC150700A2
:1035C000D015070010C0B30056003700004040007F
:1035D00078444000EB160700084044001717070026
:1035E0000004E0004E00320040C1B3001317070092
:1035F00019417800824078000174A1000104E000C4
:103600000200320010CDB30080C0400002C0EA00CA
:103610000080FB004700DE0000C0E9008180FB0065
:103620002213290082804000114060000317070028
:1036300019419000824078000174A1000104E0006B
:103640000200320010CDB30080C0400002C0EA008A
:103650000080FB004700DE0000C0E9008180FB0025
:10366000221329008280400011406000F3160700F9
:10367000CF160700C31607000840E80000404000CE
:10368000EE1607000004E0002500320040C1B30040
:10369000EA16070029419000824078000174A100D9
:1036A0000104E0000200320010CDB30080C04000F1
:1036B00002C0EA000080FB004700DE0000C0E90015
:1036C0008180FB00221329008280400011406000AD
:1036D000DA16070039419000824078000174A10099
:1036E0000104E0000200320010CDB30080C04000B1
:1036F00002C0EA000080FB004700DE0000C0E900D5
:103700008180FB002213290082804000114060006C
:10371000CA160700A616070010C0B3000100370044
:103720000040EB000000FB004F04BE00000006005C
:1037300022E02000124178004411DE0061016100A6
:103740000300200002CEBF000042B2000080FB0058
:103750000000EA004F00DE00CF80DE0000004000E5
:1037600081804800020070008380700022E0200009
:10377000124178000244B2000281FB000201EA001B
:103780004F11DE00CF91DE00421ADD00CE11DE00C7
:10379000830172004211DD0000017100818171001E
:1037A00024E020001442780000C8B3000042620008
:1037B0000482FB000402EA004F22DE00CFA2DE00FA
:1037C0004328DD00CD22DE00850270004322DD00AB
:1037D000020272008382720003CEBF00624060006A
:1037E0000080FB000000EA004F00DE00CF80DE001A
:1037F0004409DD00CC00DE00810071004400DD00E2
:10380000040070008580700032E0200012417800D2
:10381000644161000281FB000201EA004F11DE00F9
:10382000CF91DE00451ADD00CB11DE00830172006E
:103830004511DD00000171008181710034E020003C
:10384000144278000444B2000482FB000402EA003F
:103850004F22DE00CFA2DE004628DD00CA22DE00B5
:10386000850270004622DD0002027200838272002F
:1038700003CEBF0002C8B300024060000080FB001E
:103880000000EA004F00DE00CF80DE004709DD00C7
:10389000C900DE00810071004700DD0004007000F7
:1038A0008580700022E120001241780061016100F2
:1038B000CF91DE00C819DD000280FD008241780052
:1038C0000041EB00000171008181710012CEBF0048
:1038D000624060000080FB000000EA004F00DE0054
:1038E000CF80DE00490ADD00C700DE0081007200E3
:1038F0004900DD00020070008380700022E120009A
:1039000012417800644161000281FB000201EA007B
:103910004F11DE00CF91DE004A1ADD00C611DE0035
:10392000830172004A11DD00000171008181710084
:1039300012CEBF00684060000080FB000000EA007B
:103940004F00DE00CF80DE004B0ADD00C500DE0048
:10395000810072004B00DD00020070008380700067
:1039600022E1200012417800704161000281FB00D9
:103970000201EA004F11DE00CF91DE004C1ADD009B
:10398000C411DE00830172004C11DD0000017100E2
:103990008181710012CEBF000042B2000080FB00A6
:1039A0000000EA004F00DE00CF80DE004D0ADD009F
:1039B000C300DE00810072004D00DD0002007000D7
:1039C0008380700032E12000124178006441610080
:1039D0000281FB000201EA004F11DE00CF91DE0000
:1039E0004E1ADD00C211DE00830172004E11DD00AF
:1039F000000171008181710013CEBF00684060003A
:103A00000080FB000000EA004F00DE00CF80DE00F7
:103A10004F0ADD00C100DE00810072004F00DD00B2
:103A2000020070008380700032E1200012417800B3
:103A3000704161000281FB000201EA004F11DE00CB
:103A4000CF91DE00C011DD000200200000017100F6
:103A50008181710013CEBF000042B2000080FB00E4
:103A60000000EA004F00DE00CF80DE00C100DD0074
:103A700000002000020070008380700022E220001D
:103A800012417800624161000281FB000201EA00FC
:103A90004F11DE00CF91DE00C211DD0002002000D8
:103AA000000171008181710022CEBF00644060007E
:103AB0000080FB000000EA004F00DE00CF80DE0047
:103AC000C300DD0000002000020070008380700051
:103AD00022E2200012417800684161000281FB006F
:103AE0000201EA004F11DE00CF91DE00C411DD00BB
:103AF00002002000000171008181710022CEBF0010
:103B0000704060000080FB000000EA004F00DE0013
:103B1000CF80DE00C500DD00000020000200700044
:103B200083807000F2FF2F00F30320000200680082
:103B30008380680000000600FDFE07008001EB00A6
:103B400082928000800F510001003200130020009B
:103B50000300780000000600889FBE0009C2B30081
:103B60005D14070009C44400084078009014070061
:103B70000040EB008E1407000040EB008C1407009F
:103B80000040EB008A1407000040EB008814070097
:103B90000040EB00861407000040EB00841407008F
:103BA0000040EB008214070090CCB30080140700A3
:103BB0000040EB007E1407000040EB007C1407007F
:103BC0000040EB007A14070020C0B300781407000F
:103BD0004C140700401407000840780074140700D4
:103BE00040C1B3007214070000C0EB00701407005E
:103BF00000C0EB006E140700421407008944E8007F
:103C000080C2B30080CF5400D5FF3A0009C2B30090
:103C10005C15070009C444000840780087150700B8
:103C20000040EB00851507000040EB0083150700FE
:103C30000040EB00811507000040EB007F150700F6
:103C40000040EB007D1507000040EB007B150700EE
:103C50000040EB007915070090CCB3007715070002
:103C60000040EB00751507000040EB0073150700DE
:103C70000040EB007115070020C0B3006F1507006E
:103C80004B1507003F150700084078006B1507002B
:103C900040C1B3006915070000C0EB0067150700BD
:103CA00000C0EB0065150700411507008944E800D6
:103CB00080C2B30080CF5400D5FF3A004F04BE004D
:103CC00000000600889FBE008A9FBE0080457800E5
:103CD0006322290041242100E44F500006003E00E9
:103CE0000000EB0062042000B35878000000E800F8
:103CF000820F5000FCFF3A003A00200058E42000F8
:103D0000E9CFB300452EA8001880FB000000D100C9
:103D10006140600098C0640000CC700018407800DA
:103D2000E140600004CEBF00094060000140700027
:103D300004EEB70000F82900510D20002C1D0700EB
:103D40000060FE00452EA9001880FB000000D10095
:103D50006140600098C0640000CC7000184078009A
:103D6000E140600004CEBF000940600001407000E7
:103D700004EEB70000F82900510D20001C1D0700BB
:103D80000060FE000A05E900DEFF3A0046D2BF00EF
:103D900045F3B70047D2BF0082F3B7000B4078006D
:103DA000400007004F05BE004F04BE0000000600A3
:103DB000889FBE008A1F7800804478004A24210032
:103DC0004844240001C1B3000000EB006B1407005D
:103DD00040242100211C21000F00090031587800E7
:103DE00020928000880F50000300320010C0B30002
:103DF000B4FF0700F3FF370041C0B30000202000EC
:103E00005E14070060282100211C21000300090026
:103E100031587800E3CF54001400320003003E0014
:103E2000E1CF54001C00390003003700E4CF5400F8
:103E300019003A001500370046D2BF0045F3B7001D
:103E400047D2BF0082F3B70001C8B3000000EB0007
:103E50004A140700211C210009000900315D780087
:103E6000AA00B100E2CF54000B00320001C8B30039
:103E700000082000411407006A004500211C2100B1
:103E800035000900315878006003B10001C8B30063
:103E900000102000391407004F0578004F04BE00C1
:103EA00000000600881F7800004478004044240089
:103EB00020928800E34F54001700320003003E00B8
:103EC000E14F54002600390006003700E44F54004B
:103ED0001800320040C6B300804F540020003A0062
:103EE0001800370045D3BF0046F2B70082D3BF00A9
:103EF00047F2B700211C21004024210009000900DD
:103F0000B058780001C8B3000000EB006814070047
:103F1000E24F540012003200211C2100E024210055
:103F200035000900B058780001C8B300000820002F
:103F30005F14070001C8B300001020005C140700E4
:103F400007003700211C2100602821000300090020
:103F5000B058780041C0B30000202000541407007E
:103F60004F04780000000600E14F50000D003200C1
:103F700003003900E24F50000F003A000C003700F8
:103F800035EEA90050E320009080FB00C708DE005A
:103F9000C608DD00104178000264A10001487100EC
:103FA0000500370035CEA80035EEA9000200370025
:103FB00035CEA80035EEA80000000600E13621004D
:103FC000914078008180FB006FD3BF004800DD0086
:103FD00001007000E10F500003003200E20F5000BA
:103FE00020003A000D003700C136210091407800D2
:103FF0008180FB006DD3BF004800DD000100700030
:104000009080FB00104090004800DD00010070002F
:10401000812421001148780012003700C1362100A8
:10402000914078008180FB006DD3BF004800DD0027
:10403000010070009080FB00104090004800DD00FF
:104040000100700010407800E24F500003003E0075
:1040500048F2B700C4FF07000200370050012000FB
:10406000008A880000000600E136210091407800B7
:104070008180FB006FD3BF004800DD0001007000AD
:10408000E10F500003003200E20F50001F003A0021
:104090000D003700C1362100914078008180FB007F
:1040A0006DD3BF004800DD00010070009080FB0070
:1040B000104090004800DD000100700051342100E4
:1040C0001148780011003700C13621009140780076
:1040D0008180FB006DD3BF004800DD00010070004F
:1040E0009080FB00104090004800DD00010070004F
:1040F00010407800E94F500002003E0045F3B70041
:104100000200370050012000008A880000000600ED
:10411000E1362100914078008180FB006FD3BF0021
:104120004800DD0001007000E10F50000300320084
:10413000E20F50001F003A000D003700C136210089
:10414000914078008180FB006DD3BF004800DD0006
:10415000010070009080FB00104090004800DD00DE
:10416000010070002138210011487800110037004B
:10417000C1362100914078008180FB006DD3BF00E3
:104180004800DD00010070009080FB0010409000AE
:104190004800DD0001007000104078000004E000DD
:1041A0000200340082F3B700020037005001200003
:1041B000008A880000000600E13621009140780066
:1041C0008180FB006FD3BF004800DD00010070005C
:1041D000E20F50000E003A0040C6B3005651E30013
:1041E0000B003A00634050005751E30008003A00CA
:1041F0006E4040005851E30005003A006340500013
:104200005951E30002003A004CD1BF00ADFE070057
:1042100000000600E1362100914078008180FB001B
:104220006FD3BF004800DD0001007000E20F5000B6
:104230000E003A0050C6B3005651E3000B003A009E
:10424000714040005751E30008003A0075405000AB
:104250005851E30005003A00724040005951E30014
:1042600002003A004CD1BF000EFF0700000006001C
:10427000A22E2100E32C21001202BE00240198008E
:104280003501980064015100830F5100FAFF3A0094
:104290006101B8006108B800C000DD000000200026
:1042A000000171008181710092968800A3968800B8
:1042B00010002000000006006000B800E42E21007D
:1042C0006033B800E52C21001401BE00E00F51005E
:1042D000E08F590002003200068ABE000200BE00D4
:1042E00064025200850F5200F7FF3A0000000600FA
:1042F000E1362100914078008180FB006FD3BF0040
:104300004800DD0001007000E10F500012003A008B
:10431000C1362100914078008180FB006DD3BF0041
:104320004800DD00010070009080FB00104190000B
:104330004811DD00010171004CD1BF000080FB007D
:104340004200DD00E12C210001004000104978000E
:10435000104090001041980000000600E136210056
:10436000914078008180FB006FD3BF004800DD00E2
:1043700001007000E10F500020003200E20F5000F9
:1043800027003A00160037003400BE00E00F50004E
:10439000E08F5800040032000201E800820178003A
:1043A000E80F5100F8FF3A00C13621009140780033
:1043B0008180FB006DD3BF004800DD00010070006C
:1043C0009080FB00104090004800DD00010070006C
:1043D00003487800C818DE0011409800100037002C
:1043E000202D21006011B800212F21000298BE006D
:1043F000810F50000A003200FCFF37008001EB0003
:1044000090968000A1968000E00F5000E08F580049
:10441000E5FF32000001EB00642D2100DEFF3700D4
:1044200000000600E1362100914078008180FB0009
:104430006FD3BF004800DD0001007000E10F5000A5
:104440000F003A00A0898000E619070000017800FB
:10445000C1362100914078008180FB006DD3BF0000
:104460004800DD00010070009080FB0010409000CB
:104470004800DD0001007000030020000288BE003B
:1044800000000600E1362100914078008180FB00A9
:104490006FD3BF004800DD0001007000E10F500045
:1044A0000F003A00C0898000CE1907000001780093
:1044B000C1362100914078008180FB006DD3BF00A0
:1044C0004800DD00010070009080FB00104090006B
:1044D0004800DD0001007000030020000288BE00DB
:1044E00000000600E1362100914078008180FB0049
:1044F0006FD3BF004800DD0001007000E20F5000E4
:104500001E003A00BE71EF00E114210091407800D6
:104510008180FB004FD1BF004800DD00010070002A
:10452000E40F500011003A00A1C2B300014078002E
:104530005651E3000D003A0040C7B3005751E30065
:104540000A003A00B0C4B3005851E30007003A0033
:10455000014078005951E30004003A0040C6B3001E
:1045600050FE070010C0B300BEF1B7000040EB00E2
:10457000BFF1B700C0F1B700C1F1B70000000600FD
:10458000E1362100914078008180FB006FD3BF00AD
:104590004800DD0001007000E10F50000300320010
:1045A000E20F500047003A00240037004114210078
:1045B000914078008180FB0045D1BF004800DD00BC
:1045C0000100700061282100114878004114210089
:1045D000914078008180FB0045D1BF004800DD009C
:1045E000010070007128210091407800114098006E
:1045F00041142100914078008180FB0045D1BF002B
:104600004800DD0001007000812821009140780001
:104610002140980041142100914078008180FB00E6
:1046200045D1BF004800DD00010070009128210045
:10463000914078003140980022003700E1142100B9
:10464000914078008180FB004FD1BF004800DD0021
:1046500001007000E40F500014003A0062152100C0
:10466000124178000281FB0057D1BF004800DD00F5
:10467000000171000300200058D1BF000080FB0042
:1046800094152100144278004822DD0004007000D7
:1046900001002000C000DD000000200000017100CA
:1046A00081817100329488004394880010C0B30067
:1046B000BEF1B7000040EB00BFF1B700C0F1B7009A
:1046C000C1F1B7000000060047D2BF000080FB0028
:1046D00001602000010070003C190700010020006B
:1046E000A0898800B189880047D2BF000080FB0004
:1046F000015820000100700034190700010020005B
:10470000C0898800D1898800A2898000B38980008F
:1047100000C4B300BA0C07003CF1B7000004E0008D
:10472000010032004713A8003E31EF0000000600F0
:104730003CD1BF00CD0C07004713A90000000600C4
:104740003EB1AB00080032005211ED00908A8800A3
:104750004240A90004003C003E31EF002000200050
:10476000008A88004B13A800000006000000060025
:104770003800FA00889FBE008A9FBE008C9FBE0052
:104780000200200003002000C8FB2F000F0444009B
:10479000028CBE00040020000500200009FC2F0050
:1047A0008F844400848CBE0041FC2F008F80400029
:1047B0008488BE000C0020000D00200088FC2F0023
:1047C0000F0444000C8CBE00C9FC2F008F844400F1
:1047D0008C8CBE0001FD2F008F8040008C88BE00B5
:1047E00048FD2F000F0444000C8CBE0089FD2F00F3
:1047F0008F8444008C8CBE00C1FD2F008F80400050
:104800008C88BE0008FE2F000F0444000C8CBE00F4
:10481000FC8457008C8CBE00F88057008C88BE004A
:10482000748457000C8CBE00F08457008C8CBE0042
:104830000080FB004400DD00CF80DE00808FD200CE
:104840008185D200000578000AF0A100409B80001D
:10485000519B80000001450081814500A801800036
:10486000A3018800C0898000D18980000089BE0032
:10487000A8018800409B8000519B800000024500F9
:104880008182450064034200900180009501880008
:1048900000000000964078009001880000000000B1
:1048A00000CCB30080C060000134A000A0018000F3
:1048B000A5018800014B7800A00188004011E200AA
:1048C00011003A00409B8000519B80000001450090
:1048D00082A79F00018545009AA79F00E60141003D
:1048E000A3A79F00BAA79F0041FC2F008F80400024
:1048F0001100BE00A21B21000700090032587800F9
:104900008000B100E3003700409B8000519B800095
:104910000006450081864500E6014600C3A79F00CA
:10492000DDA79F00A2018000AD01880000C8B30090
:1049300080497800A2018800409B8000519B800044
:1049400000044500E8A79F0001804500F0A79F00F4
:10495000E704400089AF9F0090AF9F00A201800054
:10496000A0018800A0142100904C7800A2018800CA
:10497000409B8000519B800000014500A2AF9F003A
:1049800001804500B0AF9F00E8014000C3AF9F0029
:10499000D0AF9F00A2018000A00188004BD1BF00D2
:1049A00080497800A2018800409B8000519B8000D4
:1049B00080044500E9AF9F0001804500F0AF9F00F3
:1049C0006900400080B79F00FFA8970091B79F0043
:1049D000A2018000010078008FB09700A00188003C
:1049E0004CD1BF0080487800A2018800028A800074
:1049F0000080EB008080EB0002004000E080480077
:104A00000083EB008083EB00FC0F5000E08F580028
:104A100074003E00000601001F003700210037002F
:104A20002300370025003700270037002900370012
:104A30002B0037002D0037002F00370031003700E2
:104A400033003700350037003700370039003700B2
:104A50003B0037003D0037003F0037004100370082
:104A60004300370045003700470037004900370052
:104A70004B0037004D0037004F0037005100370022
:104A80005300370055003700000037003602200081
:104A90000780200053003700060020003750200018
:104AA0005000370006002000475020004D0037001E
:104AB00016002000475020004A0037002600200042
:104AC00047502000470037003600200047502000A4
:104AD00044003700460020004750200041003700C6
:104AE00056002000475020003E00370006002000FE
:104AF000176020003B0037001600200017602000E0
:104B000038003700260020001760200035003700ED
:104B10000600200027602000320037001604200025
:104B2000476020002F003700260420004760200047
:104B30002C00370036042000476020002900370091
:104B40007604200047602000260037000600200081
:104B500067602000230037000601200077602000F6
:104B60002000370026012000776020001D0037005C
:104B700036012000776020001A003700160120005F
:104B80009760200017003700060320009760200080
:104B90001400370016032000976020001100370032
:104BA00026032000976020000E00370066032000D7
:104BB000976020000B0037000600200007802000CF
:104BC000080037000602200007802000050037009B
:104BD0001602200007802000020037002602200075
:104BE00007802000409B8000519B80000001450011
:104BF000E29F9F0001854500FA9F9F00EA01410066
:104C0000A3B79F00BAB79F00A1018000AA01880046
:104C100086497800A1018800EF9C9700EB8444004E
:104C2000C9B79F007F989700D0B79F00C830DE00BB
:104C3000A2018000AA018800814C7800A2018800AE
:104C40004038DE00010020006F9997006C014100A0
:104C5000E2B79F00FF999700F3B79F00A301800080
:104C6000AA01880000497800A30188006F9C970082
:104C70006D04440088BF9F00FF9C970099BF9F0070
:104C80004800DE00A3018000AA018800004C7800E3
:104C9000A30188004F06BE004F05BE004F04BE00B2
:104CA0000080FA00000006003800FA00889FBE006D
:104CB0008A9FBE008C1F78000200200003002000A5
:104CC000E4FB2F000F024200028ABE0025FC2F00E9
:104CD0008F824200828ABE0066FC2F000F034300D1
:104CE000028BBE000800200009002000A7FC2F0056
:104CF0008F834300888BBE00E1FC2F008F80400033
:104D00008888BE0026FD2F000F034300088BBE00DD
:104D100067FD2F008F834300888BBE00A1FD2F000D
:104D20008F8040008888BE00E6FD2F000F034300FF
:104D3000088BBE00FE835700888BBE00FA805700A8
:104D40008888BE0076835700088BBE00F283570028
:104D5000888BBE00EE8057008888BE000046780031
:104D60000080FB004400DD00CF80DE00808FD20099
:104D70008185D200000578000AF0A100209B800008
:104D8000319B8000000245008182450064014200A1
:104D90009101800095018800000000001240780019
:104DA00091018800000000006F006000E80F5000D3
:104DB00028033A004031EF00660442009101800070
:104DC0009501880000000000984378009101880058
:104DD000000000000700780042F1B700F38980006E
:104DE000030378000602B2004700320000C0200032
:104DF0000080610044003200004020000084610017
:104E0000C8003A0003B8A3001203320048D1BF0023
:104E10000080FB0092142100124178004811DD004F
:104E2000000171006015210000014100E70142000E
:104E3000D3A79F00E5A79F0073002000A4FC2F00CC
:104E40000F0242001400BE00CA180700811421009E
:104E5000914078008180FB0049D1BF004800DD000F
:104E6000010070006700400048F1B7004800DE0014
:104E700049F1B700209B8000319B800080024500F3
:104E8000F5A79F00018545008AAF9F006683420019
:104E9000B6A79F00CAA79F00910180009A018800D1
:104EA000000000001640780091018800000000001A
:104EB0000004E00012003D000004FD0048F1B700CE
:104EC00049F1B7000004FD003171EC0020CAB300C5
:104ED000BAF1B700910180009A018800000000003B
:104EE0001640780091018800000000000074A100C5
:104EF000BBF1B70010C0B300BCF1B7004B13A80062
:104F00003071EC00D30237000781FB00820078008B
:104F1000010EB20000062000808F50003A023200DD
:104F200009003C0000022000808F50003801320050
:104F300000042000808F5000E30132000100E000F7
:104F4000DB003200C0023700000A2000808F5000D2
:104F50005F003200000C2000808F500004003200FF
:104F600000082000808F5000B7023A00B4023700DA
:104F70000208A3004B003A003EB1A9008C40780023
:104F800040142100B80207000004E00040003A008D
:104F90004D31AB003A00320042D1BF000082FB002D
:104FA0000418A300240032003F11A800209B8000B9
:104FB000319B800000014500F29F9F000185450064
:104FC0008AA79F00EA01410093AF9F00AAAF9F000C
:104FD000920180001FA897009A018800000000003D
:104FE0009040780092018800000000008180FB0062
:104FF0007F9B97006B034300B6AF9F00CAAF9F0033
:10500000920180009A01880000000000164078009C
:1050100092018800000000004800DD0080807000E0
:105020000100780046F1B700C808DE0001007800F2
:1050300047F1B700040037003F11A8000040EB0023
:1050400046F1B70047F1B700C720DD000120B200EC
:10505000F08980000090A10001007000F0898800B4
:1050600000CAB300BAF1B70010C0B300BEF1B70078
:105070004B13A8003F71A8003EB1A800750237008D
:10508000A0002000008A88004B13A800710237009E
:1050900070D3BF000080FB00008A88004B13A8007B
:1050A0006C0237000600E0000300320010CAB300B3
:1050B000BAF1B7004B13A8003F71A9003EB1A90097
:1050C0000040EB0030F1B70031F1B700610237006A
:1050D00063006100E10F50003D00320003003C001E
:1050E0000000E0003E0032006D003700E20F50008B
:1050F0002B003200E30F500069003A000600E00088
:10510000670032003F51A80040142100211207001F
:105110000040EB0048F1B70049F1B70010C0B30000
:105120008AF2B70048D1BF000080FB009214210032
:10513000124178004811DD00000171006701410053
:105140000200780048F1B7004810DE0049F1B700CE
:10515000031321009341780003007800BAF1B700EF
:105160000340E80030F1B70061142100914078005D
:105170008180FB0047D1BF004800DD0001007000C6
:10518000800F510004003900034078000074A00033
:10519000BAF1B7008A72EF004B13A8004000370045
:1051A0000600E0003E00320032D1BF003151E30082
:1051B0000300390030D1BF00BBF1B700BC71EF0074
:1051C00010CCB300BAF1B7004B13A800340037007D
:1051D0000600E000320032003F51A90030003700E5
:1051E0003EB1A9008C407800401421001E02070047
:1051F0000004E00026003A004D11AB002000320010
:105200003EB1A8002114210091407800C708DD00BC
:105210000120B200F08980000090A1000100700020
:10522000F089880020CCB300BAF1B70057D1BF0095
:10523000BBF1B70058D1BF00BCF1B70059D1BF00D6
:10524000BDF1B7005AD1BF0032F1B700611421009F
:10525000914078008180FB0047D1BF004800DD000D
:1052600001007000BEF1B7004800DE00BFF1B700DA
:10527000C071EF00C171EF004B13A80008003700A8
:1052800090002000008A88004B13A800040037001B
:1052900070D3BF000080FB00008A88004B13A80079
:1052A0000040EB0030F1B70031F1B700E901370001
:1052B0000600E000E70132000368A300E5013200C8
:1052C000F0898000070068000048A3000500320054
:1052D0003E31EF0010002000008A88004B13A80028
:1052E000DC01370048D1BF000080FB009214210090
:1052F000124178004811DD000001710060152100A5
:1053000000014100E7004200D1AF9F00E5AF9F00E0
:1053100073002000A4FD2F000F0242001400BE0005
:105320009417070048D1BF000080FB0092142100B1
:10533000124178004811DD000001710042D1BF0028
:105340000000D1000080EA00670060000001410019
:105350000200780048F1B7004810DE0049F1B700BC
:10536000E1142100914078008180FB004FD1BF0003
:105370004800DD0001007000800F5100050036007C
:105380003E31EF0010012000008A88004B13A80076
:10539000B0013700F18980004408DE000080EA0097
:1053A000610060004400DD000140A10080807000C9
:1053B000F18988002214210012417800024078000F
:1053C0000054A00001CFB30001406000BAF1B70063
:1053D0000208A3000C0032006015210044F1B70060
:1053E0004800DE0045F1B70040142100BD11070060
:1053F0003E31EF0070D3BF000080FB00008A8800C0
:105400004B13A800930137004B13A80091013700FC
:105410003EB1A9008C4078004014210092010700A1
:105420000004E000A3003A004D31AB009D003200C3
:1054300042D1BF000018A300400032000008A300C2
:10544000070032004200DE000080EA0063006000D6
:105450000000E80046F1B7004771EF00090037008F
:10546000E1142100914078008180FB004FD1BF0002
:105470004800DD000100700046F1B7004800DE0082
:1054800047F1B70046D1BF000080FB007214210035
:10549000124178004811DD0000017100E114210083
:1054A000914078008180FB004FD1BF004800DD00B3
:1054B00001007000800F51001C003A003E31EF00E7
:1054C000621521000200780044F1B7004810DE00A8
:1054D00045F1B700209B8000319B80008002450091
:1054E000F5AF9F00018545008AB79F006A8342009F
:1054F00096B79F00AAB79F00430020007E82570006
:105500001400BE001B17070040142100751107008E
:1055100000C6B300BAF1B70070D3BF000080FB0033
:10552000008A88004B13A8004A01370010012000B0
:10553000008A88004B13A800460137000008A3002A
:1055400043003200209B8000319B80008002450098
:1055500095A79F0001854500AAA79F006C83420084
:10556000B6B79F00CAB79F006D804200D0B79F00BA
:10557000EAB79F00910180009A01880000000000B6
:105580001640780091018800000000009201800020
:10559000DFB097009A018800000000009140780079
:1055A00092018800000000000140700004003200F9
:1055B00010012000008A88004B13A8002501370045
:1055C0001FA197006A014100F2B79F00AFA19700A9
:1055D00083BF9F00910180009301880000000000BC
:1055E0001241780091018800000000000281FB0058
:1055F0001FA297006B02420094BF9F00A3BF9F00B1
:1056000091018000930188000000000014407800A0
:1056100091018800000000004800DD0000017100D9
:10562000E1142100914078008180FB004FD1BF0040
:105630004800DD0001007000800F510004003200BE
:1056400010012000008A88004B13A80001013700D8
:10565000E1142100914078008180FB004FD1BF0010
:105660004800DD000100700046F1B7004800DE0090
:1056700047F1B7003EB1A8003ED1A8003E91A90075
:105680000040EB0048F1B70049F1B700401F20008F
:10569000908A880000C6B300BAF1B7004B13A80087
:1056A000EC003700A0002000008A88004B13A800FF
:1056B000E800370070D3BF000080FB00008A88003C
:1056C0004B13A800E30037003EB1A9008C407800DE
:1056D00040142100E40007000004E00045003A0007
:1056E0004D11AB003F00320048F1B70049F1B7005F
:1056F0003E31EF004ED1BF000080FB00F2142100CC
:1057000012417800C810DD0080807000E48F5000E6
:105710000F003600401F2000908A88003EB1A8008C
:10572000E01B210044F1B7004800DE0045F1B7005E
:105730004ED1BF00BEF1B70002007800BFF1B70044
:1057400010C4B300BAF1B7004B13A800C100370072
:10575000E2CF50000C00320003003E00E1CF5000C9
:1057600011003A0005003700E3CF50000900320075
:10577000E4CF50000C003A0009003700F0C4B30039
:10578000BAF1B70008003700B0C4B300BAF1B700EF
:105790000500370070C4B300BAF1B700020037004B
:1057A00030C4B300BAF1B7000100780046F1B70089
:1057B0004808DE0047F1B700E01B210044F1B700C4
:1057C0004800DE0045F1B7004014210071100700C9
:1057D00070D3BF000080FB00008A88004B13A80034
:1057E0009C00370090002000008A88004B13A8001E
:1057F0009800370070D3BF000080FB00008A88004B
:105800004B13A800930037000600E000910032001F
:10581000830078000104B2008E003A00F089800015
:10582000070068000048A30005003200F1898800E5
:1058300010002000008A88004B13A8008500370064
:10584000B01B210044F1B7004800DE0045F1B7006D
:105850004ED1BF000080FB00F11421009140780080
:10586000C808DD0080807000821421001241780099
:105870000281FB0049D1BF004800DD00020070003A
:10588000808050000100780054F1B7004808DE0025
:1058900055F1B700E78F5000080036008040EB005C
:1058A00001007800BAF1B70070C0B30046F1B7004C
:1058B0000100780047F1B700390037003E31EF00B2
:1058C00054D1BF00E44F50001F00320006003E00DC
:1058D000E24F50001000320015003E00E14F500032
:1058E0002F003A0006003700E64F5000210032003A
:1058F0001B003900E74F500029003A002300370011
:10590000D0C0B300BAF1B70010C0B30046F1B70081
:105910004771EF0022003700B0C0B300BAF1B70002
:1059200020C0B30046F1B7004771EF001C003700FC
:1059300090C0B300BAF1B70030C0B30046F1B70071
:105940004771EF001600370070C0B300BAF1B7001E
:1059500040C0B30046F1B7004771EF0010003700B8
:1059600050C0B300BAF1B70046F1B7004771EF007D
:105970000B00370030C0B300BAF1B70060C0B3000D
:1059800046F1B7004771EF000500370010C0B300C3
:10599000BAF1B70070C0B30046F1B7004771EF002D
:1059A000A11B210042D1BF004400DE006100600065
:1059B0004400DD001144A100914870004014210012
:1059C000F40F070048D1BF000080FB0091142100B4
:1059D00091407800C808DD008080700062142100CA
:1059E000124178000281FB0047D1BF004800DD0072
:1059F00002007000808040000100780048F1B7008C
:105A0000C808DE000100780049F1B700F189800084
:105A10004408DE000080EA00610060004400DD0010
:105A20000140A10080807000F189880070D3BF0020
:105A30000080FB00008A88004B13A8000500370097
:105A40003E31EF000300370030002000008A88005C
:105A50004B13A8004F0678004F05BE004F04BE0050
:105A60000080FA0000000600889FBE008A9FBE00EA
:105A70006CF3B7004800DE006DF3B7000180FB0057
:105A80004400DD00CF80DE00808FD2008185D2000F
:105A9000000578000AF0A100209B8000319B800067
:105AA00000024500818245006701420090018000AC
:105AB0009501880000000000924078008000FD0001
:105AC000BBF1B7008000FD009001880000000000DD
:105AD00068034200920180009501880000000000E8
:105AE000164078009201880000000000BCF1B70069
:105AF0008180FB004800DD0080807000010078009C
:105B0000F00FB2004AF1B700C808DE0001007800CB
:105B10004BF1B700690442009101800095018800B3
:105B2000000000001840780091018800000000008B
:105B30004CF1B700BDF1B7000040EB00C1F1B70078
:105B4000C0F1B700BFF1B700BEF1B70040142100AB
:105B50001810070070D3BF000080FB004F05BE0087
:105B60004F04BE00000006000000EB00207088001B
:105B7000A070880020718800A071880020728800C1
:105B8000A072880020738800016F2C0001708800CB
:105B9000F1C3230081708800E101230001718800B6
:105BA00080718800007288006111B00081728800E5
:105BB000310022000173880070708800F070880046
:105BC00070718800F07188007072880070738800AE
:105BD00061EEA900D4C6BF0001C8B3000140600057
:105BE000C046B300D4E6B70098C6BF0001CCB300EE
:105BF00001406000E040B30098E6B70044C7BF0032
:105C000001CEB3000140600044E7B70044C7BF00C5
:105C1000F043B20044E7B70040042000303A880067
:105C200042C7BF000058A30004003A000060FE0015
:105C300042C7BF000058A300FCFF320091AB220016
:105C400050FA2D0070EA0700B0FF2F005DEA070050
:105C50000040EB00C4F80700000006000040EB0025
:105C600004F0B7002A31EF0005F0B7000DF0B700DF
:105C700006F0B7000EF0B70007F0B7000FF0B7005E
:105C800008F0B70010F0B70009F0B70011F0B70046
:105C90000AF0B70012F0B7000BF0B70013F0B7002E
:105CA00040002100009A8800C0002100E09988008F
:105CB00040C0B3003EF3B70000000600C12421003D
:105CC000914078000104E00005003A002E51AB003D
:105CD000030032002E51A9002E11A8000900370040
:105CE0000140E900F14F400006003E002751ED0061
:105CF00027F1B70003003A000100780027F1B70050
:105D00002E11A8004D52E20005003A002F51AB00C1
:105D10000B0032002F51A9002F11A80008003700F6
:105D2000F0CF400006003E002851ED0028F1B700FA
:105D300003003A000100780028F1B7002F11A800F5
:105D40000000060000000600889FBE008A9FBE007B
:105D50008C9FBE000350EC0003F0B700F44F5000DE
:105D60008B0036000370EF0071F60700869280000A
:105D700000036B000003FD0004F0B7000003FD000A
:105D80004831DE000001FD0005F0B7000001FD0014
:105D9000070020004008DE00E29280000001690058
:105DA0000200780006F0B7004810DE0007F0B700E8
:105DB00003002000C011DD00020020000203730078
:105DC0008383730052898000030020006089800073
:105DD00001002000C000DD00000020000001710073
:105DE000818171000601690087816900A4928000A9
:105DF000050020000093800001002000C000DD00AD
:105E00000000200000027200818272008206780089
:105E10000306780004016100058061006102B8009A
:105E2000C020DD00000020006112B80004007000F6
:105E30008580700000016300018063000100200084
:105E4000C005DD000A0020006110B80000057500E3
:105E500081857500B29280000300200010938000BD
:105E600001002000C000DD000000200000017100E2
:105E70008181710002826600030066006101B80042
:105E8000C010DD00000020006121B8000200700099
:105E9000838070000681EA008781EA0000026100C9
:105EA0000180610001002000C004DD000800200026
:105EB0006120B80000047400818474009292800014
:105EC00003002000F092800001002000C000DD00EF
:105ED000000020000001710081817100828666004F
:105EE000030666006160B800C002DD000400200007
:105EF0006168B800000272008182720056898800D1
:105F0000403BDE0066898800C292800003002000CA
:105F10002093800001002000C000DD000000200070
:105F2000000171008181710004057500858575008F
:105F30000A0474008B84740002026400038064000D
:105F40006101B800C010DD00000020006121B80030
:105F50000200700083807000E00F5000E08F580056
:105F6000010032002E31A8002E31AB0008003200B3
:105F70004CD2BF0003003200E24F40000400390061
:105F8000020037002E51A800010037002E11A80092
:105F90002E11AB00070032004C13AB0004003A0096
:105FA0004C13A8002E11A9002E31A90001003700C2
:105FB0002E71EF004F06BE004F05BE004F04BE001D
:105FC00000000600889FBE00004478006D0C0700AA
:105FD0008844440000C9B30000C07400970C070057
:105FE000F87022000004E000160032000040EB00D0
:105FF000920C0700630C070010C9B30000C07400C6
:106000008E0C0700A70C07000084FB000040EB008B
:10601000740C07004844DD00AC0C07000080FB0056
:10602000000074004780DE00EA00B8002200200073
:10603000811F7800110009000200D80000047800D8
:10604000CF0078005A0C0700080078004F04BE000B
:1060500000000600E1362100914078008180FB00BD
:106060006FD3BF004800DD0001007000E20F500058
:106070000F003A00C1362100914078008180FB007A
:106080006DD3BF004800DD00010070009080FB0070
:10609000104090004800DD000100700011C0B30006
:1060A00090CF100002003A000040EB00900807007B
:1060B00000000600889FBE00E13621009140780074
:1060C0008180FB006FD3BF004800DD00010070003D
:1060D000E10F500003003200E20F50002C003A00A4
:1060E0000E003700C1362100914078008180FB000E
:1060F0006DD3BF004800DD00010070001081FB007F
:1061000090409000C808DD008280700042012000AD
:1061100060032100FE1307001D0037006903210002
:10612000C1362100914078008180FB006DD3BF0013
:106130004800DD00010070009080FB0010409000DE
:106140004800DD0001007000420120008900780055
:10615000EF13070044D3BF0066406000E24F5000D9
:106160000B003A000044EB000004FD0094F2B7007D
:1061700095F2B7000004FD0008407800CD07070045
:1061800042C1B3008900780008407800C0080700C9
:106190004F04BE0000000600889FBE00E1362100CB
:1061A000914078008180FB006FD3BF004800DD0084
:1061B00001007000E10F500003003200E20F5000B8
:1061C0002C003A000E003700C136210091407800C3
:1061D0008180FB006DD3BF004800DD00010070002E
:1061E0001081FB0090409000C808DD0082807000A4
:1061F00042012000A0042100C51307001D00370044
:10620000A9042100C1362100914078008180FB0063
:106210006DD3BF004800DD00010070009080FB00DE
:10622000104090004800DD00010070004201200095
:1062300089007800B613070044D3BF0066406000B1
:10624000E24F50000B003A000044EB0008007800D9
:1062500094F2B70010C0B30095F2B7000840780080
:106260009407070042C1B300890078000840780015
:10627000870807004F04BE0000000600889FBE008C
:10628000E1362100914078008180FB006FD3BF0090
:106290004800DD0001007000E10F500003003200F3
:1062A000E20F50002C003A000E003700C1362100EA
:1062B000914078008180FB006DD3BF004800DD0075
:1062C000010070001081FB0090409000C808DD00C4
:1062D0008280700042012000E00521008C1307003D
:1062E0001D003700E9052100C136210091407800EA
:1062F0008180FB006DD3BF004800DD00010070000D
:106300009080FB00104090004800DD00010070000C
:1063100042012000890078007D13070044D3BF00AC
:1063200066406000E24F50000B003A000044EB0072
:106330000004FD0094F2B7000004FD0095F2B700E0
:10634000084078005B07070042C1B300890078006D
:10635000084078004E0807004F04BE000000060009
:10636000889FBE00E1362100914078008180FB00CB
:106370006FD3BF004800DD0001007000E10F500046
:1063800003003200E20F50002C003A000E003700EC
:10639000C1362100914078008180FB006DD3BF00A1
:1063A0004800DD00010070001081FB00904090006B
:1063B000C808DD0082807000420120002007210013
:1063C000531307001D00370029072100C1362100A3
:1063D000914078008180FB006DD3BF004800DD0054
:1063E000010070009080FB00104090004800DD002C
:1063F000010070004201200089007800441307006A
:1064000044D3BF0066406000E24F50000B003A00EA
:106410000044EB000800780094F2B70030C0B300ED
:1064200095F2B700084078002207070042C1B30088
:106430008900780008407800150807004F04BE0066
:1064400000000600E1362100914078008180FB00C9
:106450006FD3BF004800DD0001007000E20F500064
:106460000E003A00C1362100914078008180FB0087
:106470006DD3BF004800DD00010070009080FB007C
:10648000104090004800DD000100700010407800CE
:10649000E14F500001003A00950707000000060098
:1064A000881F7800E1362100914078008180FB0050
:1064B0006FD3BF004800DD0001007000E10F500005
:1064C00003003200E20F50002A003A000E003700AD
:1064D000C1362100914078008180FB006DD3BF0060
:1064E0004800DD00010070001081FB00904090002A
:1064F000C808DD0082807000420120006008210091
:10650000031307001B00370068082100C136210073
:10651000914078008180FB006DD3BF004800DD0012
:10652000010070009080FB00104090004800DD00EA
:10653000010070004201200088007800F41207007A
:1065400044D3BF0066406000E24F500009003A00AB
:106550000040EB0094F2B70095F2B70010C0B30012
:10656000D406070042C1B3008800780010C0B30011
:10657000C70707004F04780000000600889FBE0090
:10658000E1362100914078008180FB006FD3BF008D
:106590004800DD0001007000E10F500003003200F0
:1065A000E20F50002B003A000E003700C1362100E8
:1065B000914078008180FB006DD3BF004800DD0072
:1065C000010070001081FB0090409000C808DD00C1
:1065D0008280700042012000A0092100CC12070037
:1065E0001C003700A9092100C13621009140780024
:1065F0008180FB006DD3BF004800DD00010070000A
:106600009080FB00104090004800DD000100700009
:106610004201200089007800BD12070044D3BF006A
:1066200066406000E24F50000A003A009472EF00AA
:1066300018C0B3000800780095F2B7000840780051
:106640009C06070042C1B30089007800084078002A
:106650008F0707004F04BE0000000600881F780067
:10666000E1362100914078008180FB006FD3BF00AC
:106670004800DD0001007000E10F5000030032000F
:10668000E20F500029003A000E003700C136210009
:10669000914078008180FB006DD3BF004800DD0091
:1066A000010070001081FB0090409000C808DD00E0
:1066B0008280700042012000E00A2100941207004D
:1066C0001A003700E80A2100C13621009140780005
:1066D0008180FB006DD3BF004800DD000100700029
:1066E0009080FB00104090004800DD000100700029
:1066F00042012000880078008512070044D3BF00C3
:1067000066406000E24F500008003A009472EF00CB
:1067100095F2B70010C0B3006606070042C1B3008F
:106720008800780010C0B300590707004F047800B4
:1067300000000600881F7800E136210091407800B3
:106740008180FB006FD3BF004800DD0001007000B6
:10675000E10F500003003200E20F50002A003A001F
:106760000E003700C1362100914078008180FB0087
:106770006DD3BF004800DD00010070001081FB00F8
:1067800090409000C808DD00828070004201200027
:10679000200C21005E1207001B003700280C21008E
:1067A000C1362100914078008180FB006DD3BF008D
:1067B0004800DD00010070009080FB001040900058
:1067C0004800DD00010070004201200088007800D0
:1067D0004F12070044D3BF0066406000E24F5000F4
:1067E00009003A009472EF0030C0B30095F2B70090
:1067F00010C0B3002F06070042C1B3008800780024
:1068000010C0B300220707004F0478000000060004
:10681000E1362100914078008180FB006FD3BF00FA
:106820004800DD0001017000E20F51000F003A0046
:10683000C1362100914078008180FB006DD3BF00FC
:106840004800DD00010070009080FB0010409000C7
:106850004800DD000100700011C0B30090CF1000AF
:1068600002003A0002407800A1060700000006007E
:10687000889FBE00E1362100914078008180FB00B6
:106880006FD3BF004800DD0001007000E10F500031
:1068900003003200E20F50002A003A000E003700D9
:1068A000C1362100914078008180FB006DD3BF008C
:1068B0004800DD00010070001081FB009040900056
:1068C000C808DD008280700042012000600D2100B8
:1068D0000F1207001B003700690D2100C13621008F
:1068E000914078008180FB006DD3BF004800DD003F
:1068F000010070009080FB00104090004800DD0017
:106900000100700042012000890078000012070099
:1069100044D3BF0066446000E24F540009003A00CF
:106920000040EB0094F2B70095F2B7000840780001
:10693000E005070042C1B3008900780008407800F4
:10694000D30607004F04BE0000000600889FBE006B
:10695000E1362100914078008180FB006FD3BF00B9
:106960004800DD0001007000E10F5000030032001C
:10697000E20F50002A003A000E003700C136210015
:10698000914078008180FB006DD3BF004800DD009E
:10699000010070001081FB0090409000C808DD00ED
:1069A0008280700042012000A00E2100D811070053
:1069B0001B003700A90E2100C1362100914078004C
:1069C0008180FB006DD3BF004800DD000100700036
:1069D0009080FB00104090004800DD000100700036
:1069E0004201200089007800C911070044D3BF008C
:1069F00066446000E24F540009003A009472EF00D0
:106A000010C0B30095F2B70008407800A905070050
:106A100042C1B30089007800084078009C06070056
:106A20004F04BE0000000600889FBE00E136210032
:106A3000914078008180FB006FD3BF004800DD00EB
:106A400001007000E10F500003003200E20F50001F
:106A50002A003A000E003700C1362100914078002C
:106A60008180FB006DD3BF004800DD000100700095
:106A70001081FB0090409000C808DD00828070000B
:106A800042012000E00F2100A11107001B00370088
:106A9000E90F2100C1362100914078008180FB0080
:106AA0006DD3BF004800DD00010070009080FB0046
:106AB000104090004800DD000100700042012000FD
:106AC000890078009211070044D3BF00664460003B
:106AD000E24F540009003A009472EF000800780079
:106AE00095F2B700084078007205070042C1B30074
:106AF0008900780008407800650607004F04BE0052
:106B000000000600889FBE00E13621009140780019
:106B10008180FB006FD3BF004800DD0001007000E2
:106B2000E10F500003003200E20F50002A003A004B
:106B30000E003700C1362100914078008180FB00B3
:106B40006DD3BF004800DD00010070001081FB0024
:106B500090409000C808DD00828070004201200053
:106B6000201121006A1107001B00370029112100A4
:106B7000C1362100914078008180FB006DD3BF00B9
:106B80004800DD00010070009080FB001040900084
:106B90004800DD00010070004201200089007800FB
:106BA0005B11070044D3BF0066446000E24F54000D
:106BB00009003A009472EF0030C0B30095F2B700BC
:106BC000084078003B05070042C1B3008900780007
:106BD000084078002E0607004F04BE0000000600A3
:106BE000E1362100914078008180FB006FD3BF0027
:106BF0004800DD0001007000E10F5000030032008A
:106C0000E20F500023003A000E003700C136210089
:106C1000914078008180FB006DD3BF004800DD000B
:106C2000010070001081FB0090409000C808DD005A
:106C30008280700042002000A00121003411070072
:106C400014003700C1362100914078008180FB009C
:106C50006DD3BF004800DD00010070009080FB0094
:106C6000104090004800DD0001007000420020004C
:106C7000A10121002611070044D3BF006640600037
:106C8000E24F500003003A00A10121000000EB0098
:106C9000F4F1070000000600E13621009140780081
:106CA0008180FB006FD3BF004800DD000100700051
:106CB000E10F500003003200E20F500023003A00C1
:106CC0000E003700C1362100914078008180FB0022
:106CD0006DD3BF004800DD00010070001081FB0093
:106CE00090409000C808DD008280700042002000C3
:106CF000E00121000611070014003700C136210011
:106D0000914078008180FB006DD3BF004800DD001A
:106D1000010070009080FB00104090004800DD00F2
:106D20000100700042002000E1012100F81007007E
:106D300044D3BF0066406000E24F500003003A00B9
:106D4000E101210010002000C6F10700000006004C
:106D5000E1362100914078008180FB006FD3BF00B5
:106D60004800DD0001007000E10F50000300320018
:106D7000E20F500023003A000E003700C136210018
:106D8000914078008180FB006DD3BF004800DD009A
:106D9000010070001081FB0090409000C808DD00E9
:106DA000828070004200200020022100D8100700DD
:106DB00014003700C1362100914078008180FB002B
:106DC0006DD3BF004800DD00010070009080FB0023
:106DD000104090004800DD000100700042002000DB
:106DE00021022100CA10070044D3BF0066406000A2
:106DF000E24F500003003A00210221002000200051
:106E000098F1070000000600E1362100914078006B
:106E10008180FB006FD3BF004800DD0001007000DF
:106E2000E10F500003003200E20F500023003A004F
:106E30000E003700C1362100914078008180FB00B0
:106E40006DD3BF004800DD00010070001081FB0021
:106E500090409000C808DD00828070004200200051
:106E600060022100AA10070014003700C13621007B
:106E7000914078008180FB006DD3BF004800DD00A9
:106E8000010070009080FB00104090004800DD0081
:106E90000100700042002000610221009C100700E8
:106EA00044D3BF0066406000E24F500003003A0048
:106EB00061022100300020006AF107000000060096
:106EC000E1362100914078008180FB006FD3BF0044
:106ED0004800DD0001007000E10F500003003200A7
:106EE000E20F500023003A000E003700C1362100A7
:106EF000914078008180FB006DD3BF004800DD0029
:106F0000010070001081FB0090409000C808DD0077
:106F10008280700042002000A00221007C10070047
:106F200014003700C1362100914078008180FB00B9
:106F30006DD3BF004800DD00010070009080FB00B1
:106F4000104090004800DD00010070004200200069
:106F5000A10221006E10070044D3BF00664060000C
:106F6000E24F500003003A00A1022100400020003F
:106F70003CF1070000000600E13621009140780056
:106F80008180FB006FD3BF004800DD00010070006E
:106F9000E10F500003003200E20F500023003A00DE
:106FA0000E003700C1362100914078008180FB003F
:106FB0006DD3BF004800DD00010070001081FB00B0
:106FC00090409000C808DD008280700042002000E0
:106FD000E00221004E10070014003700C1362100E6
:106FE000914078008180FB006DD3BF004800DD0038
:106FF000010070009080FB00104090004800DD0010
:107000000100700042002000E10221004010070052
:1070100044D3BF0066406000E24F500003003A00D6
:10702000E1022100500020000EF1070000000600E0
:10703000E1362100914078008180FB006FD3BF00D2
:107040004800DD0001007000E10F50000300320035
:10705000E20F500023003A000E003700C136210035
:10706000914078008180FB006DD3BF004800DD00B7
:10707000010070001081FB0090409000C808DD0006
:1070800082807000420020002003210020100700B1
:1070900014003700C1362100914078008180FB0048
:1070A0006DD3BF004800DD00010070009080FB0040
:1070B000104090004800DD000100700042002000F8
:1070C000210321001210070044D3BF006640600076
:1070D000E24F500003003A0021032100600020002D
:1070E000E0F00700000006000200FA00E13621008F
:1070F000914078008180FB006FD3BF004800DD0025
:1071000001007000E10F500010003A000040EB0059
:10711000ACFB0700F0BF9F00C13621009140780012
:107120008180FB006DD3BF004800DD0001007000CE
:107130001081FB0090409000C808DD008280700044
:10714000220020000F80E900F10F07000080FA0004
:1071500000000600881F7800F7D2BF00A4003200AC
:10716000E14F500003003200E24F5000A0003A000F
:107170008E0037000004A8000044E20084003D00B7
:10718000802180007F00600001002F00010070005E
:107190008021880030C4BF00C2CFB300024060002D
:1071A00030E4B7008000EB00912188003064A80033
:1071B00000FE2F003424B70034C4BF00024060003A
:1071C00034E4B700B12188003464A800F952E20029
:1071D0000F003200009880004300DD00002288008C
:1071E00020C4BF0001CFB300014060000024A00014
:1071F00020E4B70018C4BF0031CFB30001406000E5
:107200000024A00018E4B7001404A800010037000F
:107210001404A900FA52E2000E0032002098800007
:107220004300DD002022880020C4BF006F406000C2
:107230000045B30020E4B70018C4BF00F1CCB30090
:10724000014060000044A00018E4B7001424A80026
:10725000010037001424A900FB52E2000E003200A6
:10726000409880004300DD00402288001142200049
:1072700000CFB30011406000E648700018C4BF00A2
:10728000F1CCB300014060000044A00018E4B70056
:107290001444A800010037001444A900FC52E20085
:1072A0000E003200609880004300DD0060228800FC
:1072B00011422000114178006F4061000047B30087
:1072C0008048780018C4BF00F043B2000064A000FA
:1072D00018E4B7001464A800010037001464A90082
:1072E000FD52E2000F003200809880004300DD0074
:1072F0008022880022C4BF0001CFB300014060009B
:107300000034A00022E4B70091412000C0CFB300B8
:10731000114060000004A000804878001484A80098
:10732000010037001484A900FE52E2000F00320071
:10733000A09880004300DD00A022880022C4BF0086
:107340006F40600001C9B3000140700022E4B70043
:107350009141200030CFB300114060000024A00014
:107360008048780014A4A8000100370014A4A900E4
:10737000F772EF00F8D2BF006740600012402000B3
:1073800081CFB30092C0600000C9700005003700D3
:107390001140200080CFB300114060000024A00005
:1073A000804878000004A900110037001840200030
:1073B0000144AB0009003200A9000700F772EF009A
:1073C000812F210091407800E7C0600080CFB3009A
:1073D00018406000014C700005003700114020008B
:1073E00080CFB300114060000024A00080487800E6
:1073F0004F04780000000600F772EF008000EB00F9
:107400001120880010208000002088006120880062
:10741000A12088000004A9001140200080CFB30003
:10742000114060000024A0008048780000C4BF0024
:1074300001CEB3000140600001C8B300814F50008D
:10744000070032000060FE0000C4BF0001CEB300A0
:107450000140600001C8B300814F5000F9FF3A00BD
:107460007F000700F0012C00302088000001EB00B5
:10747000825F8800925F88000258880001CBA900D3
:1074800001ABA80000CBBF00F6CCB3000640600003
:1074900007C2B3000740700000EBB70000CBBF008D
:1074A000C3CFB3000340600000EBB70060042000CE
:1074B000105888007500200075588800204420006E
:1074C0006058880004C02D00245888000100200066
:1074D0003158880001EBA8008258880011CBA90020
:1074E00011ABA90010CBBF00064060000740700040
:1074F00010EBB70010CBBF000340600010EBB700EB
:107500002002200090588800F55888000044200090
:10751000E0588800A4588800B158880011EBA800F2
:10752000000828008021880092218800A22188007C
:10753000B22188000221880012218800A220880040
:107540000004A900D2208800D0208000C02088003C
:1075500018C4BF000340600018E4B70018C4BF009F
:1075600034CFB300044060000024A00018E4B7004A
:1075700018C4BF00064060000044A00018E4B70033
:1075800018C4BF00F043B20005C4B300054070004A
:1075900018E4B7009041200090C061000104A000F1
:1075A00001487800904062000124A0000148780062
:1075B000104363000644A00006487800F6C3B300F9
:1075C0009040630005C870001AC4BF00034060000B
:1075D0000004A0001AE4B7001AC4BF000440600011
:1075E0000024A0001AE4B7000004A90030E4A800B9
:1075F00030C0B3003064B70031E4A800114320006C
:1076000011C061000014A0008048780032E4A90095
:1076100032C4BF00034060000014A00032E4B70091
:1076200033E4A9003043200090C161000314A0009E
:1076300003487800622088000001FD00F9F2B700DD
:10764000FAF2B700FBF2B700FCF2B700FDF2B700A8
:107650000001FD0002007800FEF2B7000000060005
:10766000F6D2BF00E44F50002100320008003E0077
:10767000E14F5000120032000D003900E24F50007F
:1076800013003200E34F50002D003A001400370081
:10769000E64F50001E00320019003900E74F50003D
:1076A0001F003200E84F500025003A00200037004C
:1076B00000482800E10120002600070024003700D0
:1076C00000242400F10020002200070020003700E1
:1076D00000502300C10020001E0007001C003700DE
:1076E00000122A00710020001A000700180037005D
:1076F00000092D003100200016000700140037009B
:1077000080842E00110020001200070010003700B6
:1077100000352C00010020000E0007000C0037008F
:1077200000E22400010020000A00070008003700E2
:10773000007122000100200006000700040037004D
:10774000B005200080208800202D20009020880097
:1077500000000600889FBE008A1F78000003BE005C
:107760000164A9005AC0B300F0472800E1012000DD
:10777000800F5300818F5B000D003E00AAC0B30054
:10778000F0232400F1002000800F5300818F5B0064
:1077900007003E008AC2B300F069280011002000F3
:1077A000800F5300818F5B00010036004AC1B30097
:1077B0008A80FB0052002000110009008280D8005E
:1077C0008000FD008140E900C608DD0010C4BF0054
:1077D000F043B2000140700010E4B7000A82FB00E1
:1077E000050020000430B8008721B8008100410066
:1077F00000044000818448000801BE0000B023005E
:107800008185200089E307008000E900F003200063
:10781000808F5000060036000164A8000801BE00F9
:1078200000D82100C142200080E307008000E90069
:10783000F0C3B30000C1600010C4BF0001CCB300AE
:10784000014060000240700010E4B7008A81FB0034
:107850000380410052002000110009000200D800FE
:107860000040E900674060004300DD002141200046
:107870009140780072CCB30082C0600080C070007C
:107880000100780012E4B70012E4A800E318B80081
:10789000A2002000110009000200D8000040E90009
:1078A000674060003241200084CFB3009240620004
:1078B00000C97000C219DE008341E900E7C1610020
:1078C00012C4BF00044060000340700012E4B7001F
:1078D00012C4A8004F0578004F04BE000000060047
:1078E0008040780030C4BF000038A30004003A0094
:1078F0000100780018F3B700120020000E003700D6
:1079000031C4BF000038A30004003A000100780031
:1079100019F3B700220020000700370032C4BF006F
:107920000001EB000038A30003003A0001007800DA
:107930001AF3B700320020000200780000000600B1
:10794000E14F500008003200040039008000EB00D5
:10795000E24F500009003A00060037003064A800EA
:1079600011002000050037003164A800110020003C
:10797000020037003264A8001100200001007800E6
:107980000000060004C4BF00F007B200E10F500081
:107990000C003200E20F5000110032008040EB007A
:1079A0000000E00014003A0004C4BF0001C8B300A6
:1079B0000140600004E4B70081312100914078006B
:1079C0000D00370004C4BF0001C8B30001406000CF
:1079D00004E4B7009131210091407800060037009F
:1079E00004C4BF0001C8B3000140600004E4B70054
:1079F000A1312100914078000180FB0000000600C9
:107A00000042780000C4BF000080FB004500DE009B
:107A1000F8F2B7008000EB00902F21008482FB0079
:107A20001004E0000B003A00902F2100008040007D
:107A300004487800C208DD0000302100808040004A
:107A40008288BE0010C0B300F7F2B70005007800CE
:107A5000050037008100E8000000E800E68F5000D4
:107A6000EFFF3A000000EB00000006000041780044
:107A700000C4BF000080FB004500DE00F8F2B70044
:107A80008000EB00902F2100904F110007003A007A
:107A9000902F2100008040000048EB0010C0B30090
:107AA000F7F2B70010002000050037008100E80061
:107AB0000000E800E68F5000F3FF3A000000EB0002
:107AC0000000060004C8BF000028A3000A0032001E
:107AD00050E420009080FB008100D100E1C06000F4
:107AE0000104A20081C04000104178000214A100EE
:107AF000014871000448A9002804E2000400320093
:107B000000FC2C00A1062000B90D07000060FE005B
:107B10000AC4BF000028A300010032000A44A900E3
:107B20000A44E20005003D0000FC2C00A1062000F4
:107B3000AF0D07000060FE000AE4A90020C4BF00EA
:107B40000048A300030032002084A9001100200097
:107B50001D00370020C4BF000058A30003003200FE
:107B600020A4A900210020001700370020C4BF0076
:107B70000068A3000300320020C4A90031002000E7
:107B8000110037002044E20003003D0020E4A9007A
:107B9000410020000C00370021C4BF000008A300F2
:107BA000030032002104A900510020000600370024
:107BB00021C4BF008000EB000018A30002003200C7
:107BC0002124A900610020000100780000000600C7
:107BD00000000600881F780000447800C4010700F8
:107BE00030C0B30094F2B70010C0B30095F2B700F4
:107BF000084078002F010700713029000840780004
:107C00001602070050C0B30094F2B7009572EC0062
:107C10000840780027010700712E290008407800ED
:107C20000E02070035CEBF000068A3000B003A002B
:107C3000A1C0B300084078000A0007008129210094
:107C40009140780008407800300207009129210017
:107C500091407800084078002C0207004F0478001B
:107C600000000600889FBE00804478000144780030
:107C700032292100124178000248A3008D00320011
:107C8000D1292100914078000108A30005003200AD
:107C90009D72EF00024078000044A10093F2B7000B
:107CA000020137000180FB000018A300050032002C
:107CB0009D72EF00024078000044A10093F2B700EB
:107CC000FA0037000028A3000B0032009D72EF007D
:107CD000024078000044A10093F2B7000840780009
:107CE00001C2B300814F540001003100014078000F
:107CF0009BF2B700ED0037000038A300050032000A
:107D00009D72EF00024078000044A10093F2B7009A
:107D1000E60037000048A300320032000880FB0074
:107D200001FD2F0001004000E90F50000E003E0051
:107D300090D2BF0004003A000004FD0092F2B700A8
:107D40000004FD0005003700E14F500003003A0039
:107D50000004FD0091F2B7000004FD000040E800BF
:107D600090F2B700D100370060C6B300804F5400D6
:107D7000030032007E405000804F54000A003A0059
:107D80000029210011C0B30090CF1000060036007A
:107D900092D2BF0095F2B70091D2BF0094F2B70023
:107DA00009407800C3000700A0C6B300804F54000C
:107DB00007003A009052E2000500320020C3B300F1
:107DC0009252E30002003A0009407800480107009F
:107DD0000040EB009DF2B70090F2B7009392A9002B
:107DE000B20037000058A3000A0032000808A300C0
:107DF00004003200024078000014A10093F2B700A2
:107E0000AA003700024078000014A00093F2B700E7
:107E1000A6003700F24F54001000320005003E006B
:107E2000E74F540011003200F14F54001B003A009C
:107E300006003700F34F540010003200B0C5B30005
:107E4000804F540015003A001000370001407800C0
:107E50000004A0009DF2B700100037000140780038
:107E60000014A0009DF2B7000C003700014078001C
:107E70000024A0009DF2B700080037000140780000
:107E80000034A0009DF2B7000400370001407800E4
:107E90000044A0009DF2B7009072EF009D52E200F6
:107EA00082003A00024078000044A10093F2B7003B
:107EB0007E003700FFCF50000E0036000104E000C6
:107EC00001003D000874A1000841780011C0B30012
:107ED00009407800210107009452EC0094F2B700A9
:107EE00061292100914078000104E1003E00310049
:107EF0006E0037000180FB0001002000620050008E
:107F0000E0805800F90F5000E08F580067003E00F5
:107F100000060100190037001E003700630037001B
:107F2000620037006100370020003700370037005B
:107F3000200037002C0037002500370027003700CD
:107F40002E0037004000370044003700570037004C
:107F500047003700490037004A0037004B00370020
:107F600052003700510037005000370049003700F9
:107F70004E0037004D003700490037009A12A80024
:107F8000F2C0B3008040EB0009407800F300070026
:107F9000460037009A12A900C2C0B3008040EB002F
:107FA00009407800ED000700400037009B01070002
:107FB0003E0037009472EC0009407800230107006E
:107FC00094D2BF006700600038003200F9FF37002C
:107FD000094078004C010700340037000940780060
:107FE0003C010700310037009472EF009572EC00FD
:107FF00009407800370107002C0037009472EF0029
:10800000094078002B0007002800370094D2BF00F9
:10801000260032000040E90094F2B70002C1B3002C
:108020008040EB0009407800CC0007000940780050
:108030000601070002C1B3008040EB000940780050
:10804000C60007001900370002C1B3008040EB00F2
:1080500009407800C10007001400370042C1B30096
:108060008040EB0009407800BC0007000F0037009B
:10807000F0C0B30098F2B7000C0037009872EF0020
:108080000A003700040EA80008003700040EA900FB
:10809000060037000940780095000700030037000C
:1080A000024078000044A00093F2B7004F04BE00E5
:1080B000000006008041780097D2BF00E24F5000D8
:1080C00020003200E44F500022003200E14F500007
:1080D0002E003A0041292100914078000040EB0039
:1080E000E7CF50000700360067C1600000CCB30046
:1080F000004171008040EB000340780097000700CA
:108100002200370042292100124178000274A100A8
:10811000024140000274A0008040EB000340780060
:108120008E00070094D2BF0018003B000074A1002D
:1081300061292100914078000140500094F2B7007D
:108140001200370095D2BF00610060004600DD00DC
:10815000ECFF3700612921009140780070C2B30024
:1081600080CF5000F7FF3E005029210012C0B3001D
:10817000904F1100F3FF360094D2BF0000C04000C2
:108180000074A00094F2B700EEFF37000000060074
:10819000881F78000044780082C3B3008040EB0061
:1081A00070000700005C240041002000100C070054
:1081B00082C3B3008040EB000840780069000700EC
:1081C0000017210011002000090C070082C3B30032
:1081D0008040EB0008407800620007000017210093
:1081E00011002000020C070082C3B3008040EB00A6
:1081F0000840780059000700C2C0B3008040EB007F
:10820000084078005500070062C0B3008040EB00D2
:1082100008407800510007004F0478000000060075
:10822000889FBE008A9FBE008C1F780000457800A2
:1082300082C4B3008040EB00480007008005EB00DB
:108240009C3129004358DD008C0440000044EB00C1
:108250003941780011C0B3000A4078003F000700A0
:108260000844E800E84F5400F9FF3A008B05E800A5
:10827000E78F5500F3FF3A004F0678004F05BE0028
:108280004F04BE0000000600881F780000447800FC
:108290000040EB0093F2B7009DF2B70095F2B700F3
:1082A00000E62A00A1002000D10B0700084078005A
:1082B000B7FF070008407800D9FF070080C0B3006F
:1082C00098F2B700A0C0B30099F2B70040C0B30065
:1082D00097F2B70040C1B30096F2B70008407800AB
:1082E00003000700100020004F0478000000060083
:1082F000881F7800004478008040EB008000FD007B
:1083000094F2B70095F2B7008000FD0012C0B300F0
:1083100012000700084078000500070000732500E0
:1083200051002000B20B07004F0478000000060047
:108330008040EB008000FD0094F2B70095F2B7009A
:108340008000FD0022C0B30004000700002E2200C0
:1083500021002000A60B0700000006000100070016
:1083600000000600889FBE00004478008244780028
:108370000104E0000200320034AEA8000100370022
:1083800034AEA90000F02F00402EB600C02B200014
:1083900001002000960B0700E14F54000600320058
:1083A00003003900E24F540006003A000400370091
:1083B000344EA80003003700346EA80001003700D7
:1083C000348EA800C02B200001002000880B07007D
:1083D00000F02F00442EB6000980FB00442EB700A9
:1083E000C02B200001002000810B0700E14F54004A
:1083F0000600320003003900E24F540006003A0044
:1084000004003700344EA90003003700346EA90081
:1084100001003700348EA900C02B2000010020008D
:10842000730B070034AEA8000060FE0000172100A7
:10843000110020006E0B07000980FB004F04BE00F6
:10844000000006000180FB000000060002C2B3002D
:1084500011C0B300C1FF070000000600889FBE00E6
:108460008044780001047800914078000104E00025
:108470000500320009407800FAFD0700D840780076
:108480000104E000FBFF3A004F04BE0000000600BC
:10849000889FBE008A1F780000457800010478009C
:1084A0000241E9000281FB00828040008104E80073
:1084B000B84078000A407800EAFD0700890F5400B0
:1084C000FBFF3A004F0578004F04BE000000060095
:1084D000000006008040780097D2BF00E14F5000B6
:1084E0000800360052292100124178000204E10000
:1084F00002003A000040E90095F2B7000140780020
:10850000ECFE07000000060000000600889FBE0089
:1085100000447800814478000180FB004400DE00C4
:10852000E94F5000010036006740400002C3B3002D
:108530008240400008407800CAFD07006FC0640018
:10854000E94F5000010036006740400002C3B3000D
:108550008240400008407800C2FD070001C2B3001D
:1085600008407800BFFD07004F04BE000000060071
:108570000400FA00881F7800004478000180FB00A6
:10858000A2002000E680570053E007002FF9970073
:1085900011C0B3000840780070FF07003FF9970052
:1085A00011C0B300084078006CFF07004F0478004A
:1085B0000080FA0000000600889FBE008A1F780035
:1085C000804478009472EF008000FD0095F2B700BF
:1085D0008000FD00B7FE07009652ED00E14F40001D
:1085E000070032000044780000C5EB000940780025
:1085F00096FF07000844E9008A4F5400FBFF3A0049
:1086000009407800ABFE07004F0578004F04BE001C
:108610000000060000000600000006009BD2BF001C
:108620000080FB008000D100DBDF070020C0B3002A
:108630009CF2B70000000600881F78000104780053
:108640004700DD0071242100914078008180FB000B
:10865000010070005D09070001002000B09988004A
:10866000C1998800C740DD0047D2BF000080FB00F1
:1086700000807000550907000100200090998800D3
:10868000A19988004F04780000000600889FBE0072
:10869000004478008144780092998000A39980007A
:1086A00000C8B300D6FC070042F3B7000004E000A6
:1086B000030032000804E000010032004813A80063
:1086C000B2998000C399800010C8B300CCFC0700A9
:1086D00043F3B7000004E000030032000904E000A7
:1086E000010032004913A8004F04BE00000006003C
:1086F00042D3BF00DDFC070043D3BF00DBFC070013
:108700004813A9004913A90000000600889FBE0075
:108710008A9FBE008C9FBE004F13A9000080FB0003
:108720004400DD00CF80DE00808FD2008186D20041
:10873000000678000CF0A100E2998000209B8000E8
:10874000319B8000000246008182460066034200A1
:1087500085037800830020000600BE00850A07001C
:10876000209B8000319B80000004460081844600ED
:108770006405440091018000990188000000000018
:108780001A40780091018800000000006F406000EE
:108790003AF3B700E44F500006003A00C100210050
:1087A00005EB07000004E00002003A0010C0B3002F
:1087B00026F1B7004F06BE004F05BE004F04BE00B5
:1087C000000006004F33A9000080FB004400DD00DC
:1087D000CF80DE00808FD2008182D200000278003C
:1087E00004F0A100209B8000319B8000000142002A
:1087F0008181420091018000930188000000000007
:108800001240780091018800000000000018A300C9
:10881000010032004C13A800000006000000060012
:10882000889FBE008A9FBE008C9FBE000080FB0018
:108830004400DD00CF80DE00808FD2008186D20030
:10884000000678000CF0A100409B8000519B800046
:1088500000024600818246006603420085037800DC
:10886000009A800007000900305B78008600B100A4
:108870008000B100409B8000519B800000014600B9
:1088800081814600640441009001800093018800CA
:10889000000000009840780090018800000000006F
:1088A00000CCB30080C06000E033210090C07000B5
:1088B000A0018000A3018800014C7800A00188007D
:1088C000409B8000519B800000054600818546004A
:1088D000A2018000AB018800B0998000C19980009E
:1088E000008DBE00A20188004F06BE004F05BE00ED
:1088F0004F04BE00000006000200FA00E13621002D
:10890000914078008180FB006FD3BF004800DD00FC
:1089100001007000E10F500003003200E20F500030
:1089200054003A001100370090998000AD0807000C
:1089300000017800F0BF9F00C1362100914078000F
:108940008180FB006DD3BF004800DD000100700096
:108950009080FB00104090004800DD000100700096
:10896000030020000288BE0042003700C13621000B
:10897000914078008180FB006DD3BF004800DD008E
:10898000010070009080FB00104090004800DD0066
:1089900001007000100078008C080700800078004B
:1089A000F0BF9F000000210000806000180032002E
:1089B0006108B80092998000A399800002006800C5
:1089C000838068000001780002C0A100610AB8003D
:1089D000C020DD00000020006112B800040070001B
:1089E00085807000E00F5000E08F580005003A00CD
:1089F0004813AB00010032003DFF07003393A8008D
:108A00001C00370050C1B30070F3B70019003700E5
:108A10006108B80092998000A39980000200680064
:108A2000838068000001780002C0A100610AB800DC
:108A3000C020DD00000020006112B80004007000BA
:108A400085807000E00F5000E08F580007003A006A
:108A50004813AB0003003A0011C0B3000140780096
:108A60000AFF07003393A9000200370050C1B3008A
:108A700070F3B7000080FA00000006000200FA0060
:108A8000E1362100914078008180FB006FD3BF0068
:108A90004800DD0001007000E10F500003003200CB
:108AA000E20F500052003A0011003700B0998000E8
:108AB0004C08070000017800F0BF9F00C13621007C
:108AC000914078008180FB006DD3BF004800DD003D
:108AD000010070009080FB00104090004800DD0015
:108AE00001007000030020000288BE004000370033
:108AF000C1362100914078008180FB006DD3BF001A
:108B00004800DD00010070009080FB0010409000E4
:108B10004800DD0001007000100078002B080700FD
:108B200080007800F0BF9F000000210000806000FE
:108B3000180032006108B800B2998000C399800023
:108B400002006800838068000001780002C0A10074
:108B5000610AB800C020DD00000020006112B800EA
:108B60000400700085807000E00F5000E08F580016
:108B700005003A004913AB00010032004913A90077
:108B80003793A8001A00370050C1B30070F3B70044
:108B9000170037006108B800B2998000C3998000BF
:108BA00002006800838068000001780002C0A10014
:108BB000610AB800C020DD00000020006112B8008A
:108BC0000400700085807000E00F5000E08F5800B6
:108BD00005003A004913AB0001003A004913A80010
:108BE0003793A9000200370050C1B30070F3B700FB
:108BF0000080FA0000000600E13621009140780074
:108C00008180FB006FD3BF004800DD0001007000D1
:108C1000E10F500003003200E20F500028003A003C
:108C20000D003700C1362100914078008180FB00A3
:108C30006DD3BF004800DD00010070009080FB0094
:108C4000104090004800DD0001007000C1242100A8
:108C5000114878001A003700C13621009140780091
:108C60008180FB006DD3BF004800DD000100700073
:108C70009080FB00104090004800DD000100700073
:108C800090407800F0CF400005003E008000FD00DD
:108C90004CF2B70027F1B7008000FD000800370054
:108CA00001C0E800E14F500003003E0001007800E1
:108CB0004CF2B7000200370050C1B30070F3B700A8
:108CC000000006000000060000000600000006008C
:108CD0000000060000000600354EA900352EA80051
:108CE000312EA900220107002800070020010700FB
:108CF000352EA9001E010700354EA9001C010700F2
:108D000000000600352EA900354EA900312EA9001D
:108D1000354EA80016010700352EA80014010700E3
:108D200013010700312EA8001800070010010700EA
:108D300000000600312EA9000004E000020032000D
:108D4000352EA80001003700352EA90000000000D4
:108D500000000000354EA80005010700354EA900AF
:108D60000301070000000600312EA80000010700E3
:108D7000354EA800FE00070033CEBF00354EA900D7
:108D80000000D1006100600000000600354EA80020
:108D9000314EA800F60007000060FE0033CEBF0091
:108DA0000028A300FCFF3200314EA900000006009D
:108DB000889FBE008A1F78000044780089C0B300F5
:108DC0000AC8B3000A406400DAFF07000844440000
:108DD0008944E900FBFF3A00312EA800E4000700B7
:108DE000EAFF0700E200070033CEBF00354EA900BE
:108DF000894078000018A3000100320011C0B300C0
:108E0000014078000004A2000080FB004F057800BC
:108E10004F04BE0000000600889FBE0089C0B3005A
:108E200000444000D0FF0700004074008944E9007E
:108E3000FBFF3A000080FB004F04BE00000006006C
:108E4000889FBE0089C0B30008444400C6FF0700E5
:108E5000004474008944E900FBFF3A0010C0B300ED
:108E6000B4FF07000880FB004F04BE0000000600AE
:108E7000881F78000044780097FF070000CAB300FD
:108E8000CBFF070008407800C9FF070092FF0700EA
:108E900010CAB300C6FF0700E9FF070000447800CE
:108EA00098FF07000884FB00080078004F04780052
:108EB000000006000200FA00881F7800E0BF9F0053
:108EC00085FF070000CAB300B9FF07005FF89700ED
:108ED000B7FF07004FF89700B5FF07007EFF0700B8
:108EE00010CAB300B2FF0700D5FF070000447800A6
:108EF00084FF07000884FB00080078004F04780016
:108F00000080FA0000000600889FBE000044780040
:108F10008144780070FF070000CAB300A4FF070077
:108F200008407800A2FF07006BFF070010CAB300DB
:108F30009FFF0700281C21000940E9008080FB00FA
:108F4000301C210080844000B3FF0700005C7800E3
:108F5000890F5400030032000040EB0075FF07004A
:108F6000F9FF370010C0B30072FF070065FF07006C
:108F7000800020004F04BE00000006000200FA003E
:108F8000889FBE00D0BF9F008144780052FF070039
:108F900000CAB30086FF07003FF8970084FF070070
:108FA0002FF8970082FF07004BFF070010CAB3009D
:108FB0007FFF0700281C21000940E9008080FB009A
:108FC000301C21008084400093FF0700005C780083
:108FD000890F5400030032000040EB0055FF0700EA
:108FE000F9FF370010C0B30052FF070045FF07002C
:108FF000000120004F04BE000080FA0000000600BF
:10900000889FBE008A1F78000145780000447800E0
:1090100089C0B30030FF070000CAB30064FF070037
:109020000840780062FF07000A40780060FF0700F0
:1090300034FF07003B0007000844E8008944E900CA
:10904000F4FF3A004F0578004F04BE000000060010
:10905000889FBE0000447800814478001EFF07000E
:1090600000CAB30052FF07000840780050FF070015
:10907000281C21000940E9008080FB00301C2100F1
:10908000808440003840780049FF0700890F540071
:10909000FCFF3A001BFF070000CC25005101200017
:1090A00053080700100020004F04BE000000060017
:1090B0000200FA00889FBE00D0BF9F008144780064
:1090C00005FF070000CAB30039FF07003FF897000B
:1090D00037FF07002FF8970035FF0700281C2100F5
:1090E0000940E9008080FB00301C210080844000A2
:1090F000384078002EFF0700890F5400FCFF3A002B
:1091000000FF070000732500510020003808070009
:109110000060FE00000120004F04BE000080FA0045
:1091200000000600881F780048C6B300EAFE07006A
:1091300000CAB3001EFF07000004E00002003A006E
:109140000844E900F9FF3A004F04780000000600E7
:10915000881F780098C0B30003FF07000844E900A7
:10916000FDFF3A00100020004F04780000000600C8
:109170000060FE0060042000010020001C080700C1
:1091800000000600046EA900044EA800004EA900CD
:10919000F7FF070059000700F5FF0700044EA9007C
:1091A000F3FF0700046EA900F1FF070000000600AE
:1091B000044EA900046EA900004EA900046EA80088
:1091C000EBFF0700044EA800E9FF0700046EA900AA
:1091D000E7FF0700004EA80048000700E4FF070073
:1091E00000000600004EA9000004E000020032006A
:1091F000044EA80001003700044EA9000000000042
:1092000000000000046EA800D9FF0700046EA9004A
:10921000D7FF070000000600004EA800D4FF07009B
:10922000046EA800D2FF070002CEBF00046EA900A2
:109230004200DE006100600000000600889FBE0062
:109240008A1F78000044780089C0B3000AC8B300C0
:109250000A406400E3FF0700084444008944E90031
:10926000FBFF3A00004EA800C1FF070023000700E3
:10927000BFFF070002CEBF00046EA900894078003E
:109280000028A3000100320011C0B30001407800A3
:109290000004A2000080FB004F0578004F04BE00D0
:1092A00000000600889FBE0089C0B3000044400053
:1092B000D9FF0700004074008944E900FBFF3A0031
:1092C0000080FB004F04BE0000000600889FBE0027
:1092D00089C0B30008444400CFFF07000044740075
:1092E0008944E900FBFF3A0010C0B300BDFF07004E
:1092F0000880FB004F04BE0000000600046EA800BA
:10930000006EA8009AFF07000060FE0002CEBF00BA
:109310000038A300FCFF3200006EA9000000060028
:10932000881F780098C0B300BBFF07000844E9001D
:10933000FDFF3A00100020004F04780000000600F6
:1093400021322100914078008180FB0023D3BF00AF
:109350004800DD0001007000050032002033A80045
:10936000010020006099880071998800140037007E
:1093700041322100914078008180FB0025D3BF005D
:109380004800DD00010170000D0032006132210053
:10939000914078000104E0000900320000C8B300E9
:1093A00021F3B7002053A8002033A8000180FB0060
:1093B0008010B80001002000609988007199880031
:1093C00000000600E1362100914078008180FB001A
:1093D0006FD3BF004800DD0001007000E10F5000B6
:1093E00003003200E20F500023003A001000370063
:1093F000C1362100914078008180FB006DD3BF0011
:109400004800DD00010070009080FB0010409000DB
:109410004800DD0001007000213221001148780071
:10942000313221009140780011409800120037003D
:10943000C1362100914078008180FB006DD3BF00D0
:109440004800DD00010070009080FB00104090009B
:109450004800DD0001007000801F78001040780097
:1094600022F3B7004F0078001040900023F3B700BC
:109470002073EF00B2FF070000000600E136210074
:10948000914078008180FB006FD3BF004800DD0071
:1094900001007000E10F500003003200E20F5000A5
:1094A00023003A0010003700C136210091407800B7
:1094B0008180FB006DD3BF004800DD00010070001B
:1094C0009080FB00104090004800DD00010070001B
:1094D000413221001148780051322100914078003A
:1094E0001140980012003700C136210091407800E9
:1094F0008180FB006DD3BF004800DD0001007000DB
:109500009080FB00104090004800DD0001007000DA
:10951000801F78001040780024F3B7004F007800D7
:109520001040900025F3B7002073EF0084FF070080
:1095300000000600E1362100914078008180FB00A8
:109540006FD3BF004800DD0001007000E10F500044
:1095500003003200E20F50001E003A000D003700F9
:10956000C1362100914078008180FB006DD3BF009F
:109570004800DD00010070009080FB00104090006A
:109580004800DD00010070006132210011487800C0
:1095900010003700C1362100914078008180FB0027
:1095A0006DD3BF004800DD00010070009080FB001B
:1095B000104090004800DD0001007000801F78001E
:1095C0001040780026F3B7004F0078002073EF00BA
:1095D0005BFF07000000060047D2BF000080FB00D1
:1095E0000170200001007000780507006101B800DB
:1095F00042998800539988002073EF00213221009E
:10960000914078008180FB0023D3BF004800DD003B
:1096100001007000020032004673A8000F003700FE
:1096200041322100914078008180FB0025D3BF00AA
:109630004800DD0001007000080032002653E200FF
:109640000600320040C0B300EDF8070030F3B70069
:109650000004E000010032004673A80038FF070054
:109660000000060030D3BF0000F907004673A900D0
:10967000000006002053AB00290032000080FB00F0
:109680004400DD00CF80DE00808FD2008180D200D8
:109690000000780000F0A100229B8000339B800036
:1096A0000202400083824000910180009501880001
:1096B00000000000144078009101880000000000C4
:1096C0000018A300160032006403420091018000DC
:1096D0009501880000000000164078009101880084
:1096E000000000006F0060000D003A004A73A800FF
:1096F00024D3BF000080FB0051322100914078004C
:10970000C808DD008080700026D3BF000080FB0009
:109710008008B800010020006099880071998800D5
:10972000000006000C00FA00889FBE008A9FBE0061
:109730008C9FBE000400200005002000F880570028
:109740008488BE0074845700048CBE000C00200086
:109750000D002000F08457008C8CBE000080FB00C0
:109760004400DD00CF80DE00808FD2008185D200F2
:10977000000578000AF0A100409B8000519B80000A
:109780000001450081814500A8018000A3018800F7
:1097900040998000519980000089BE00A80188008E
:1097A000409B8000519B8000000245008182450063
:1097B00064034200900180009501880000000000D1
:1097C00096407800900188000000000000CCB300B3
:1097D00080C060000104A000A0018000A5018800F5
:1097E000014B7800A001880002322100124178006C
:1097F0000208A3002B003A001132210091407800AA
:1098000000C8B30000C0600021F3B7000228A30025
:10981000060032000080FB004700DE000004A200CA
:109820004700DD0021F3B7000100370021F3A90054
:1098300044D3BF000028A300020032002153A80037
:10984000090037000018A3000300320050C0B30025
:109850002173B700040037000008A30002003200A3
:10986000F0C7B3002173B700409B8000519B80007C
:1098700000014500C2B79F0001854500DAB79F008F
:1098800066044100E8B79F00FAB79F00A20180007C
:10989000AA01880021D3BF00004C7800A2018800F3
:1098A0000E0037002013A900409B8000519B8000D0
:1098B00000064500818645006600460080BF9F0087
:1098C0009DBF9F00A20180008FB89700AD01880066
:1098D0000040EB0080487800A20188004F06BE00DF
:1098E0004F05BE004F04BE000080FA0000000600D5
:1098F00020D3BF000018A30024003200629980002A
:109900007399800061025100E082590064998800D7
:1099100075998800E00F5200E08F5A001B003C0050
:109920000028A3000C003A002232210012417800E6
:109930000281FB0023D3BF004800DD00020070005D
:1099400000004200E0804A00609988007199880018
:109950004A73A8000D00370024D3BF000080FB002D
:109960005132210091407800C808DD0080807000ED
:1099700026D3BF000080FB008008B8000100200053
:109980006099880071998800CE05070000000600E4
:1099900000000600800278006CF3B7004800DE008B
:1099A0006DF3B700154890000004E0004A00320053
:1099B0000048A300100032008040EB000100780056
:1099C00070F3B70010C0B3006EF3B7000100780069
:1099D0006FF3B700C54890008180FB0055489000A8
:1099E0004800DD00010070000000010070D3BF00DE
:1099F0000080FB003A00370067006000E30F500072
:109A00001B003200E50F500003003200E10F500050
:109A10002D003A0016003700254090000080FB0022
:109A2000354190004811DD00000171001580FB00F8
:109A300095409000C808DD0080807000C549900006
:109A40008381FB00554890004800DD000300700052
:109A5000454290000482FB00D5419000C819DD000A
:109A60008481710003004000A90507001A00370037
:109A7000254090000080FB00354190004811DD003A
:109A8000000171001580FB0095409000C808DD00C2
:109A900080807000C54990008381FB00554890008C
:109AA0004800DD0003007000454290000482FB0086
:109AB000D5419000C819DD00848171000300400089
:109AC000930507000400370090C0B30070F3B7009F
:109AD00090002000020037007073EF000000EB00E0
:109AE00000000600000278006CF3B7004800DE00BA
:109AF0006DF3B700144890000004E0002A00320023
:109B00000048A300100032008040EB000100780004
:109B100070F3B70020C0B3006EF3B7000100780007
:109B20006FF3B700C44890008180FB005448900058
:109B30004800DD00010070000000010070D3BF008C
:109B40000080FB001A003700670060000080E90019
:109B5000E10F500010003E00244090000080FB0008
:109B6000344190004811DD0000017100444890002C
:109B70000080FB00D4489000C808DD0080807000A1
:109B80009481FB00144090004800DD000300700049
:109B90005F05070004003700A0C0B30070F3B700F2
:109BA000A0002000020037007073EF000000EB00FF
:109BB000000006000800FA00889FBE008A9FBE00D1
:109BC000000278006CF3B7004800DE006DF3B700C8
:109BD000660542001A407800C0F79F00F4409000EC
:109BE000D1F79F0004489000E0F79F008143780080
:109BF0000181FB0082007800010FB2000003200009
:109C0000808F50002000320008003C00F08F500090
:109C10003100320070005000808F5000160032007A
:109C20000100E00010003200730037000005200042
:109C3000808F50001C00320004003C007000500077
:109C4000808F50006C003A0013003700000620009F
:109C5000808F50001800320070004000808F50004C
:109C600065003A0018003700E2CD2800B086840075
:109C70008041780071003700E2EB2800C086840044
:109C8000804178006D003700E2F32800D086840020
:109C9000804178006900370062F62800E086840081
:109CA000804178006500370062F72800F086840064
:109CB0008041780061003700E2F8280000878400C6
:109CC000804178005D003700620A29001087840017
:109CD00080417800590037006F006100E40F5000A8
:109CE0001500320005003C000000E0000A003200D0
:109CF000E20F50003C003A000B003700E80F500024
:109D000023003200EA0F50002C003200E60F500012
:109D100035003A001300370062D1280040878400E4
:109D2000804178004500370062E4280050878400B5
:109D300080417800410037006C8057001004E0003B
:109D400004003A00E2E52800608784008041780042
:109D50003A003700B0C0B30070F3B700B000200085
:109D60006B0037006C8057001004E00004003A00DC
:109D700062E7280080878400804178002F00370048
:109D8000B0C0B30070F3B700B0002000600037002F
:109D90006C8057001004E00004003A00E2E828005C
:109DA000708784008041780024003700B0C0B30081
:109DB00070F3B700B0002000550037006C805700EA
:109DC0001004E00004003A0062EA28009087840052
:109DD0008041780019003700B0C0B30070F3B700BD
:109DE000B00020004A003700B0C0B30070F3B700E5
:109DF000B000200046003700B0C0B30070F3B700D9
:109E0000B0002000420037000040EB0070F3B700C4
:109E10006EF3B7006FF3B700C44890008180FB0079
:109E2000544890004800DD0001007000000001006F
:109E300070D3BF000080FB0035003700B0C0B30016
:109E400070F3B700F082570003000900B25A78009F
:109E50004500B1004200B1000304E0002A003200D6
:109E60004FF397006FF497008040EB0049C1B300B7
:109E70000B0420001FF0970080CF530019003A0018
:109E80000FF09700864F500016003A000900780046
:109E900070F3B7002FF09700804F5400030032009A
:109EA0003FF09700008065000E00320007000900B7
:109EB000325D78008A00B1008200B1003FF0970067
:109EC0000080650001003200084A98003FF09700CA
:109ED0000048A300CCFF3A007073EF000000EB00D5
:109EE0000B0037006801410003000900B25A7800F6
:109EF0004500B1004200B1008140E9000300EA00E2
:109F000080CF5000DBFF3A0070D3BF000080FB0021
:109F10004F05BE004F04BE000080FA00000006009E
:109F2000881F78000040EB0044F3B70046F3B70009
:109F300047F3B70048F3B70049F3B7004AF3B70057
:109F40004BF3B7004CF3B7004DF3B7004EF3B70037
:109F50004FF3B70046D2BF00F6F2B70026F5070070
:109F60003EEF0700DD03070024030700D6E90700E2
:109F70004100200030002000AFF9070011C0B300FD
:109F800001407800C1F907002E01070092FD07008B
:109F900070F407001140200080CFB30091486000AA
:109FA00000C4BF0001CEB3000140600005003200D4
:109FB0000060FE0000C4BF0001CEB300014060009D
:109FC000FBFF3A002013A8000040EB0044F6070016
:109FD0000004E000050032000044E9000840780079
:109FE000D0FD07000840780055F607004413A8008C
:109FF0004F04780000000600B2F607000004E000FD
:10A00000520032000042E9000480FB00912F210041
:10A0100001004000104078004234210012417800D5
:10A020000208A300490032000004E00047003200AB
:10A030008081FB0083007800010CB2000004200046
:10A04000808F50001E00320000082000808F5000DA
:10A05000250032000100E0003C003A0003007800D7
:10A06000F003B200E20F500009003200E40F50008C
:10A070000E003200E10F500034003A004613AB00EE
:10A080003200320004407800A00307002F003700A0
:10A090004633AB002D0032000228A3002B003A000B
:10A0A00004407800E2020700280037004673AB0046
:10A0B00026003200044078006EFD070023003700C0
:10A0C0000228A30021003A0003007800F003B20048
:10A0D0001E003A004713AB001C0032000440780019
:10A0E000F1EA0700190037000228A30017003A0020
:10A0F0000218A3001500320003007800F003B2003C
:10A1000003003200E10F500010003A000800370051
:10A110004813AB000D0032004F13AB000B003A00A8
:10A120004F13A8000440780078F9070007003700B3
:10A130004913AB00050032004F33AB0003003A0077
:10A140004F33A800044078009EF907000000060085
:10A15000881F780010C0B300E1F5070041342100EA
:10A16000914078000108A300620032000004E00082
:10A17000600032004A53E200230032004AD3BF009D
:10A180000038A3000D0032004673AB000900320016
:10A1900040C0B300D2F507000004E0000500320023
:10A1A0000044E900084078005EFD070008407800A0
:10A1B000E3F507004A73A9004E0037000048A300EA
:10A1C0000F0032004693AB000B0032000128A300C1
:10A1D00009003A0050C0B300C1F507000004E000D8
:10A1E000050032000044E90008407800A0000700A4
:10A1F00008407800D2F507004A93A9003D003700D7
:10A200004A73EF003B0037004B53E200130032006B
:10A210000128A30037003A004B13AB000D003200B9
:10A220004713AB000900320000C4B300ACF50700CF
:10A230000004E000050032000044E9000840780016
:10A240004BE9070008407800BDF507004B13A90053
:10A25000280037004B73EF00260037004C53E20014
:10A26000240032000118A300220032000128A300BC
:10A2700020003A004CD3BF000008A3000D003200BC
:10A280004913AB000900320010C8B30094F5070071
:10A290000004E000050032000044E90008407800B6
:10A2A0005FF9070008407800A5F507004C13A900E6
:10A2B000100037000018A3000D0032004813AB0057
:10A2C0000900320000C8B30085F507000004E00073
:10A2D000050032000044E900084078004FF907000B
:10A2E0000840780096F507004C33A90001003700BC
:10A2F0004C73EF004F04780000000600A1F5070042
:10A3000042342100124178000208A30037003200D5
:10A310000004E000350032008081FB0083007800FB
:10A32000010CB20000042000808F500016003200A3
:10A3300000082000808F50001C0032000100E00067
:10A340002A003A0003007800F003B200E40F500046
:10A3500003003200E50F500024003A0004003700EB
:10A360004673AB002100320089FD07001F00370053
:10A370004693AB001D0032000228A3001B003A00E8
:10A38000CB000700190037000228A30017003A008D
:10A3900003007800F003B20014003A004713AB004A
:10A3A00012003200F1E80700100037000218A30085
:10A3B0000E0032000228A3000C003A0003007800CF
:10A3C000F003B20006003200E10F500007003A002F
:10A3D0004913AB00050032003EFA070003003700C6
:10A3E0004813AB000100320039FA070000000600F4
:10A3F0004413AB00120032004953E2000300320064
:10A400004913AB000100320030FA07004653E20066
:10A41000060032004673AB000100320034FD070035
:10A420004693AB0001003200A20007004753E20050
:10A43000030032004713AB0001003200C0E8070000
:10A440000000060047D2BF000074A0000080FB009F
:10A45000DE01070001002000F09B8800019C8800BD
:10A460004693A800000006004693A90000000600DD
:10A470002F02B000889FBE008A9FBE008C9FBE0046
:10A480008E1F78000400200005002000F280570095
:10A490008488BE000C0020000D00200068FD2F0005
:10A4A0000F0444000C8CBE00A9FD2F008F844400D3
:10A4B0008C8CBE00EEFD2F000F0747000C8FBE00F6
:10A4C000FE8057008C88BE007A8457000C8CBE003A
:10A4D000F68457008C8CBE000080FB004400DD0039
:10A4E000CF80DE00808FD2008184D200000478000B
:10A4F00008F0A1002EFD2F000F074700088FBE00B7
:10A50000409B8000519B80000001440081814400F9
:10A51000AE018000A3018800F09B8000019C8000B8
:10A520000089BE00AE018800409B8000519B8000E6
:10A530001FA9970000034100AFA997008183410044
:10A5400064044300F8B79F0087BF9F00900180001C
:10A550009701880000000000984078009001880072
:10A560000000000000CCB30080C060000134A000F7
:10A57000A0018000A7018800014C7800A00188009C
:10A58000409B8000519B80009FAC9700008244005C
:10A590002FAF97008102470066054200A1018000AD
:10A5A000A5018800D2D2BF00004D7800A10188002B
:10A5B00067064200909680004800DE00A1018000FE
:10A5C000A5018800004E7800A101880068004200C3
:10A5D000B0AF9F00C5AF9F00A101800000017800CF
:10A5E000A5018800D0D2BF0000497800A1018800F1
:10A5F000E9004200D1AF9F00E5AF9F000043EB00B0
:10A60000A0018000A501880086487800A00188008C
:10A610006A014200F2AF9F0085B79F0090968000CC
:10A62000A19680004008DE00A2018000FFAB9700E9
:10A63000A5018800804B7800A20188006B044200CD
:10A6400098B79F00A5B79F00A0018000A5018800D2
:10A65000064C7800A0018800EC044200B9B79F00C6
:10A66000C5B79F00A0018000A5018800864C780036
:10A67000A00188006D074200DEB79F00E5B79F008C
:10A68000A0018000A5018800064F7800A001880085
:10A6900006007800D0F2B7004F0778004F06BE00E2
:10A6A0004F05BE004F04BE002F02B100000006009F
:10A6B0000000060000000600E1362100914078000D
:10A6C0008180FB006FD3BF004800DD0001007000F7
:10A6D000E10F500003003200E20F500013003A0077
:10A6E00010003700F09B80003E010700C1362100BA
:10A6F000914078008180FB006DD3BF004800DD00F1
:10A70000010070009080FB00104090004800DD00C8
:10A7100001007000029B8000139B80000288BE0035
:10A7200002003700A0C0B30070F3B70000000600BD
:10A730008213000002000000820000000000000000
:10A74000441300000C00000080000000D012000044
:10A7500026000000800000006C13000006000000CE
:10A760008000000084130000020000008000000050
:10A770001C130000160000008000000032130000CF
:10A780001200000080000000301100009200000064
:10A79000800000007213000006000000800000002E
:10A7A0005C130000080000008000000000100000A2
:10A7B000300100008000000086130000020000004D
:10A7C0008200000001000000421200004E00000064
:10A7D00080000000641300000800000082000000F8
:10A7E00040DC01000000DC000100000000DC000093
:10A7F0000002000080000000F612000026000000A9
:10A8000080000000881300000200000082000000A9
:10A8100000000000C2110000800000008000000065
:10A820007E13000004000000800000007813000088
:10A830000600000080000000501300000C00000023
:10A84000820000008C92AC0092FFFE00FDFCFB0039
:10A85000FAF9F800901200004000000080000000AB
:10A860008A130000A0000000820000000100000028
:10A870000000000000000A000000000000000000CE
:10A88000006400000000000000000000E803000079
:10A890000000000000001000270000000000000081
:10A8A00000A08600010000000000000040420F00F0
:10A8B00000000000000080009698000000000000EA
:10A8C0000000E100F50500000000000000CA9A0049
:10A8D0003B00000000000000E40B540002000000F8
:10A8E0000000E80076481700000000000010A500F6
:10A8F000D4E8000000000000A0724E00180900001B
:10A90000000040007A10F3005A0000000080C600EA
:10A91000A47E8D000300000000C16F00F2862300BA
:10A92000000000008A5D78004563010000006400BB
:10A93000A7B3B600E00D000000E889000423C700BB
:10A940008A0000002A1400002A0000008200000093
:10A95000286E75006C6C29000030310032333400F1
:10A96000353637003839410042434400454600003F
:10A970003031320033343500363738003961620007
:10A9800063646500660000005414000026000000A7
:10A990008200000056147C00140000007C140900A2
:10A9A0000000000002007A00140000007A14060083
:10A9B000020100000000000000000000000006008E
:10A9C00002020000000000007A14000006000000EF
:10A9D00080000000801400000200000082000000DF
:10A9E00001000000000000005FB3AB001600320061
:10A9F000E49A8000F59A8000F27F20000201620054
:10AA00004211DD0003002000412ADE00F0FF20009B
:10AA100004006000010020000001710081817100CC
:10AA2000029B8800139B8800F09A80000000E000E1
:10AA300001003D006033A80000E8A3000E003200D2
:10AA40006013A8000C003700E09A80004200DD008F
:10AA500001002000009B8800119B8800F09A800074
:10AA60000000E00001003D006033A80000E8A30002
:10AA7000010032006013A80000000600C200DD00E3
:10AA80000000E00001003D000110A00000E8A3006C
:10AA9000010032000100A000010078000000060063
:10AAA000889FBE000004BE00C2FF210002016000BA
:10AAB00003002000410ADE0005002000F0FF200016
:10AAC000040060000100200000017100818171001C
:10AAD0000800E00001003D000210A000000024007A
:10AAE00008006000010032000200A0000200BE0069
:10AAF0004F04BE0000000600E29A8000F39A800036
:10AB00004E18DD004211DE0002017000C219DE00A5
:10AB1000F07F20000200600001002000009B880000
:10AB2000119B8800E09A80000008A3000100320019
:10AB300063D3A8000018A3000100320063F3A8004B
:10AB400000000600881F7800F27F2000030020002C
:10AB5000E09A8000F19A8000C4D607004200DE002F
:10AB600001002000009B8800119B8800E09A800073
:10AB70000008A3000100320063D3A8000018A3005E
:10AB80000100320063F3A800080078004F04780049
:10AB900000000600E29A80004510DD004700DE005C
:10ABA00001002000009B8800119B880002007800B3
:10ABB0000208A3000100320063D3A8000018A3001C
:10ABC0000100320063F3A80000000600010020002D
:10ABD000E09A8800F19A880083FF0700009B8000BC
:10ABE0000000060001002000E09A8800F19A880029
:10ABF000C1FF0700009B800000000600929B8000C0
:10AC0000A39B800020C0B3007DF3070076F3B7005C
:10AC10000004E000010032004633A80000000600F6
:10AC200076D3BF0091F307004633A9000000060069
:10AC30000080FB004400DD00CF80DE00808FD2006A
:10AC40008183D2000003780006F0A100209B8000E1
:10AC5000319B800000014300818143006402410078
:10AC600091018000930188000000000014407800EA
:10AC700091018800000000006F00600001003A00B0
:10AC80000EEC0700000006000200FA00E136210089
:10AC9000914078008180FB006FD3BF004800DD0049
:10ACA00001007000E10F500003003200E20F50007D
:10ACB0002C003A0011003700909B8000C9FF07006C
:10ACC000F0BF9F00C1362100914078008180FB00D9
:10ACD0006DD3BF004800DD00010070009080FB00D4
:10ACE000104090004800DD0001007000029B8000D1
:10ACF000139B80000288BE001A003700C136210075
:10AD0000914078008180FB006DD3BF004800DD00DA
:10AD1000010070009080FB00104090004800DD00B2
:10AD20000100700010007800A8FF0700F0BF9F002E
:10AD300000402000FFB997000080610007003A0042
:10AD4000B7FF07007FB8970001002000909B8800A4
:10AD5000A19B8800A9FF07000200370050C1B30083
:10AD600070F3B7000080FA0000000600C29B80006C
:10AD7000D39B800030C0B30021F307007CF3B70001
:10AD80000004E000010032004653A8000000060065
:10AD90007CD3BF0035F307004653A900000006002E
:10ADA0000080FB004400DD00CF80DE00808FD200F9
:10ADB0008183D2000003780006F0A100209B800070
:10ADC000319B800000014300818143006402410007
:10ADD0009101800093018800000000001440780079
:10ADE00091018800000000006F00600001003A003F
:10ADF000D4EB0700000006000200FA00E136210053
:10AE0000914078008180FB006FD3BF004800DD00D7
:10AE100001007000E10F500003003200E20F50000B
:10AE20002C003A0011003700C09B80006DFF070026
:10AE3000F0BF9F00C1362100914078008180FB0067
:10AE40006DD3BF004800DD00010070009080FB0062
:10AE5000104090004800DD0001007000029B80005F
:10AE6000139B80000288BE001A003700C136210003
:10AE7000914078008180FB006DD3BF004800DD0069
:10AE8000010070009080FB00104090004800DD0041
:10AE900001007000100078004CFF0700F0BF9F0019
:10AEA00000402000FFB997000080610007003A00D1
:10AEB000B7FF07007FB8970001002000C09B880003
:10AEC000D19B8800A9FF07000200370050C1B300E2
:10AED00070F3B7000080FA00000006006011B800AF
:10AEE00010C0B300C6F2070084F3B7000004E0000E
:10AEF000010032004613A8000000060084D3BF0002
:10AF0000DAF207004613A90000000600889FBE0081
:10AF10008A9FBE000080FB004400DD00CF80DE0081
:10AF2000808FD2008182D2000002780004F0A1005C
:10AF3000209B8000319B80000003420081834200FF
:10AF40006401430091018000970188000000000027
:10AF50001240780091018800000000006F0060003E
:10AF6000E20F500033003A00670443009101800073
:10AF700097018800000000001840780091018800C7
:10AF80000000000071242100914078000104E100DC
:10AF9000020032000004E00026003A00660543008B
:10AFA0009001800097018800000000009A4078001E
:10AFB000900188000000000000C8B30080CF50005E
:10AFC0001400320005003E00E1CF50000A003200BC
:10AFD000E2CF500017003A000B00370010C8B30052
:10AFE00080CF50000F0032000040E80080CF5000BA
:10AFF00010003A000D0037004433A8004453A90064
:10B000000F0007000B0037004453A8000C00070096
:10B01000080037004433A9004453A9000800070082
:10B020000400370024000700020037002400070056
:10B03000BBFB07004F05BE004F04BE00000006002A
:10B0400044D3BF0066406000E24F500019003A0050
:10B050004C13A800A10121000000EB0001E1070052
:10B06000E101210010002000FEE007002102210084
:10B0700020002000FBE007006102210030002000DA
:10B08000F8E00700A102210040002000F5E00700E1
:10B09000E102210050002000F2E00700210321001E
:10B0A00060002000EFE00700C100210040C0B300B5
:10B0B000C1E00700000006000000FE0000000600DE
:10B0C00000000600040EA800450EA80000FC2C009D
:10B0D000A1062000460007000060FE00452EA800E3
:10B0E00000F82900510D2000410007000060FE001B
:10B0F000040EA900450EA90000F82900510D2000FA
:10B100003B0007000060FE00452EA900000006007D
:10B11000000278000200E900E10F40000600320062
:10B1200084017800000042000000E800B358780075
:10B13000808F5100FDFF3A000000060000037800F8
:10B140000202BE008101E900E18F410008003200E7
:10B15000A0018000A5018800364A7800A00188007F
:10B160000402E8008301E900E18F4100F8FF3A00A2
:10B17000000006000002BE00020378008301E9001F
:10B18000E18F41000A0032009001800095018800A3
:10B1900000000000145B78009001880000000000AF
:10B1A0000402E8008301E900E18F4100F6FF3A0064
:10B1B0000000060000000000000000000040060043
:10B1C00000000000000000000040060000A0FE009B
:10B1D00000E8A9000080FE0000400600801F780003
:10B1E000907280000268A9004F00780000400600BD
:10B1F000F03FB1000180B10006003500EE03090008
:10B2000000000000403FB1000180B100FBFF3D00A5
:10B210001000B000203FB00002003500008009009F
:10B220000000000000000600C1442000D0FA2D00FC
:10B23000FAD407000000060001C8BF008000EB0040
:10B240000008A300020032000108A900110020003C
:10B250000100780000000600BEEF070066FB070053
:10B26000BBFB070025FC070000000600FFFFFF00F6
:10B27000FFFFFF00FFFFFF00FFFFFF00FFFFFF00DA
:10B28000FFFFFF00FFFFFF00FFFFFF00FFFFFF00CA
:10B29000FFFFFF00FFFFFF00FFFFFF00FFFFFF00BA
:10B2A000FFFFFF00FFFFFF00FFFFFF00FFFFFF00AA
:0200000400FFFB
:0200000401F009
:10000800CFFF00007BFF00009EFF0000ECFF000018
:0C001800CBFF0000DFFF0000CFFF000066
:04002400FF000000D9
:00000001FF
